:060000000A128A110E280D
:10000800FE00030EF7000408F8000A08F9000A12B7
:100018008A11442A0A128A11112883134930FD00D3
:100028000530FE007730FF003F3084000A128A1145
:1000380068250A128A11B301B401B501B601B701E6
:10004800B801B901BA01BB01BC01BD01BE01F00193
:10005800F101F201F301F40183010A128A11342833
:100068000A128A1165240A128A1183120313C9011C
:10007800C90AC3309F05B401B301831203139F1447
:1000880028300A128A1181250A128A118312031351
:100098003B08B100B2013108A9003208AA000A12CF
:1000A8008A114A250A128A11831203132A08B000FA
:1000B8002908AF000A128A11AF230A128A11831283
:1000C80003132F080A128A1181250A128A11831232
:1000D80003133B08B100B2013108A9003208AA0095
:1000E8000A128A11E0240A128A11831203132A08B9
:1000F800B0002908AF000A128A11AF230A128A1128
:10010800831203132F080A128A1181250A128A11F1
:10011800831203133B08B100B2013108A70032086B
:10012800A8000A128A11B3240A128A11831203132F
:100138002808B0002708AF000A128A11AF230A1254
:100148008A11831203132F080A128A1181250A12B1
:100158008A112C300A128A1181250A128A118312F7
:1001680003133A08B100B2013108A9003208AA0005
:100178000A128A114A250A128A11831203132A08BD
:10018800B0002908AF000A128A11AF230A128A1197
:10019800831203132F080A128A1181250A128A1161
:1001A800831203133A08B100B2013108A9003208DA
:1001B800AA000A128A11E0240A128A118312031370
:1001C8002A08B0002908AF000A128A11AF230A12C0
:1001D8008A11831203132F080A128A1181250A1221
:1001E8008A11831203133A08B100B2013108A7003B
:1001F8003208A8000A128A11B3240A128A1183123B
:1002080003132808B0002708AF000A128A11AF2389
:100218000A128A11831203132F080A128A118125E0
:100228000A128A112C300A128A1181250A128A119F
:10023800831203133908B100B2013108A90032084A
:10024800AA000A128A114A250A128A118312031374
:100258002A08B0002908AF000A128A11AF230A122F
:100268008A11831203132F080A128A1181250A1290
:100278008A11831203133908B100B2013108A900A9
:100288003208AA000A128A11E0240A128A1183127B
:1002980003132A08B0002908AF000A128A11AF23F5
:1002A8000A128A11831203132F080A128A11812550
:1002B8000A128A11831203133908B100B2013108F6
:1002C800A7003208A8000A128A11B3240A128A1158
:1002D800831203132808B0002708AF000A128A11F6
:1002E800AF230A128A11831203132F080A128A11E4
:1002F80081250A128A112C300A128A1181250A12C4
:100308008A11831203133808B100B2013108A90019
:100318003208AA000A128A114A250A128A1183127F
:1003280003132A08B0002908AF000A128A11AF2364
:100338000A128A11831203132F080A128A118125BF
:100348000A128A11831203133808B100B201310866
:10035800A9003208AA000A128A11E0240A128A1196
:10036800831203132A08B0002908AF000A128A1161
:10037800AF230A128A11831203132F080A128A1153
:1003880081250A128A11831203133808B100B201B9
:100398003108A7003208A8000A128A11B3240A12E9
:1003A8008A11831203132808B0002708AF000A1225
:1003B8008A11AF230A128A11831203132F080A1213
:1003C8008A1181250A128A112C300A128A11812574
:1003D8000A128A118312031344080A128A1181250A
:1003E8000A128A118312031345080A128A118125F9
:1003F8000A128A118312031346080A128A118125E8
:100408000A128A118312031347080A128A118125D6
:100418000A128A112C300A128A1181250A128A11AD
:10042800831203133F080A128A1181250A128A11BE
:100438008312031340080A128A1181250A128A11AD
:100448008312031341080A128A1181250A128A119C
:100458008312031342080A128A1181250A128A118B
:1004680029300A128A1181250A128A1101300A12CA
:100478008A110D250A128A1141280A128A110E289A
:10048800831203138C1E492A4A2A4F2A1A08F50098
:100498007508B6009A010C1F522A532A9B2A852AEE
:1004A8001E08F5007508BB001F08C33904389F00F3
:1004B8000230F5007508C9000C139B2A1E08F500C8
:1004C8007508BA001F08C33908389F000330F500C3
:1004D8007508C900602A1E08F5007508B9001F08CC
:1004E800C3390C389F000430F5007508C900602A2C
:1004F8001E08F5007508B800C3309F05C901C90A70
:10050800602A4908F500F6017608003A03198D2A91
:100518009B2A7508013A0319542A033A0319622AD7
:10052800013A03196F2A073A03197C2A9B2A8C1D62
:100538009E2A9F2A1E2B1412141BA32AA42AA82A17
:10054800941FA72AA82AAF2A1308F5007508B70030
:1005580014139413141683160313941AB42AB52A81
:10056800D22A1419B82AB92AD22A831203131308D3
:10057800F5007508B700141683160313141CC52A52
:10058800C62AC02A831203131308F5007508F2005F
:10059800A630F500F50BCE2A00001B2B941AD52A9D
:1005A800D62A1B2B141DD92ADA2A1B2B83120313D4
:1005B8001308F5007508B700831603131410F82AFA
:1005C800831203133B0893000E2B831203133A087C
:1005D80093000E2B83120313390893000E2B8312FA
:1005E8000313380893000E2B7208F500F6017608FD
:1005F800003A0319002B0E2B7508203A0319F32A29
:10060800603A0319E92AC03A0319E42A403A03195F
:10061800EE2A0E2B83121416A630F500F50B122BBA
:1006280000008316031314181A2B1B2B152B831287
:1006380003138C110B1D212B222B3D2B0130F500B0
:100648007508F10733307102031C2B2B2C2B3A2B26
:10065800023088060130F5007508F0070430700292
:10066800031C372B382B392BB501F101633081007E
:100678000B1179088A0078088400770E8300FE0E33
:100688007E0E090083120313A601A11F4C2B4D2BCC
:10069800542BA009A109A00A0319A10AA601A60AB8
:1006A800A31F572B582B612BA209A309A20A0319D0
:1006B800A30A0130A4002408A606A701A80120085F
:1006C80021040319682B692BA02BA501A50A772BF8
:1006D80001300310A00DA10DFF3E031D6D2B01304D
:1006E800A4002408A507A11F7A2B7B2B6C2B0130B3
:1006F8000310A70DA80DFF3E031D7C2B2108230224
:10070800031D882B20082202031C8B2B8C2B932B78
:100718002008A2022108031CA303A3022714013006
:100728000310A10CA00CFF3E031D942B0130A50261
:10073800031D9F2BA02B7B2B26080319A42BA52B6D
:10074800AA2BA709A809A70A0319A80A2808A1001B
:100758002708A0000800E22B3030AF000030B000BE
:10076800092C3130AF000030B000092C3230AF0016
:100778000030B000092C3330AF000030B000092C35
:100788003430AF000030B000092C3530AF000030F5
:10079800B000092C3630AF000030B000092C3730DB
:1007A800AF000030B000092C3830AF000030B00086
:1007B800092C3930AF000030B000092C8312031324
:1007C8003008003A0319E92B092C2F08003A0319BD
:1007D800B02B013A0319B52B033A0319BA2B013A86
:1007E8000319BF2B073A0319C42B013A0319C92B64
:1007F800033A0319CE2B013A0319D32B0F3A0319E5
:10080800D82B013A0319DD2B092C08008312031396
:10081800A601A31F102C112C182CA209A309A20AA7
:100828000319A30AA601A60AA11F1B2C1C2C212C04
:10083800A009A109A00A0319A10A20082104031983
:10084800262C272C562CA501A50A352C013003107F
:10085800A00DA10DFF3E031D2B2C0130A400240880
:10086800A507A11F382C392C2A2C21082302031D87
:100878003F2C20082202031C422C432C492C200820
:10088800A2022108031CA303A30201300310A10C38
:10089800A00CFF3E031D4A2C0130A502031D552C58
:1008A800562C392C260803195A2C5B2C602CA209CB
:1008B800A309A20A0319A30A2308A1002208A00079
:1008C8000800831603130F140F168F160F170F3017
:1008D80085000F308312031385000F30831603172A
:1008E8008800890183160313880183120313880182
:1008F8008B170B17831603130C179F121F129F13C6
:100908003F30831203139F050C131F148316031320
:100918009A010C3099001811831603178711831652
:1009280003131812831203139817831603139816C8
:10093800831203131816831603138C1681120112DF
:10094800811101158114011463308312031381008E
:1009580050300A128A112E250A128A1108006430B2
:1009680083120313A0000030A1002808A300270861
:10097800A2000A128A110A240A128A118312031386
:100988002108AA002008A9000A30A0000030A10010
:100998002A08A3002908A2000A128A110A240A12A6
:1009A8008A11831203132108AC002008AB002C081D
:1009B800A8002B08A7000800643083120313A000C6
:1009C8000030A1002A08A3002908A2000A128A11EF
:1009D8000A240A128A11831203132108AC00200882
:1009E800AB000A30A0000030A1002C08A3002B089F
:1009F800A2000A128A1146230A128A1183120313CB
:100A08002108AE002008AD002E08AA002D08A90074
:100A1800080083120313A100212D0C1E142D152D7F
:100A2800112D210884000A128A118B250A128A11B5
:100A380099000130A0002008A107210884000A12AB
:100A48008A118B250A128A11003A031D2C2D2D2D8F
:100A5800112D080083120313A00020088316031326
:100A680093003630831203139400803083160313E7
:100A7800940001309100871507168B170B17831206
:100A880003138C11831603138C150800643083122A
:100A98000313A0000030A1002A08A3002908A2001F
:100AA8000A128A1146230A128A1183120313210893
:100AB800AC002008AB002C08AA002B08A9000800ED
:100AC8007E088A007F0882000A128A1164250A12A9
:100AD8008A118000840A04087D0603190034FF0A7D
:100AE8000319FE0A682D303430342E343034003483
:100AF800303430342E343034003483120313A000E1
:100B08000C1E872D882D842D20089900080005309B
:100B18008A000408840A820700340A340D34003439
:04400E00D420FF3F7C
:00000001FF
