:020000040000FA
:060000000A128A110E280D
:10000800FE00030EF8000408F9000A08FA000A12B4
:100018008A113C280A128A1111288313C030FD0066
:100028000130FE006230FF00A03084000A128A11FD
:10003800B1210A128A115630FD000130FE009930B4
:10004800FF00423084000A128A11B1210A128A1173
:10005800D601D701D801D901DA01DB01DC01DD01C4
:10006800DE01DF01FB01FC0183010A128A11162956
:10007800831203130C1F4128422851280030F00036
:10008800F1000A128A1182210A128A117108FC00F1
:100098007008FB00831203130C130B1C54285528FB
:1000A80088280618582859285E280130D8000030BA
:1000B800D9006E28061C612862286E285803590446
:1000C800031D672868286E280130880783120313E8
:1000D800D801D90186187128722877280130D600EE
:1000E8000030D7008728861C7A287B288728560363
:1000F8005704031D8028812887280130880283122D
:100108000313D601D7010B100B1D8B288C28C92887
:1001180087010903031D91289228A4280230890029
:100128000F307B05F00000307C05F1000A128A11BF
:100138003C210A128A117008831203138700C6280B
:1001480002300906031DA928AA28C62801308900FB
:100158007C08F7007B08F60004300310F70CF60C57
:10016800FF3E031DB1280F307605F00000307705FB
:10017800F1000A128A113C210A128A1170088312AE
:1001880003138700633081000B117A088A0079080D
:100198008400780E8300FE0E7E0E0900831603137A
:1001A8000F140F138F120F160130831203138500DB
:1001B80087018801890103308600013083160317FF
:1001C80088008901033083160313860087010130F4
:1001D8008500880189010B100B11811303309600EB
:1001E800033095008B170B178B158B168112811115
:1001F80001118110011063308312031381008316EB
:1002080003130C17C330831203139F0583160313BC
:100218009F121F129F133F30831203139F050C1365
:100228001F1408000A128A11D2200A128A110130FA
:100238008900831203139F1483120313080883167B
:100248000313C000C1017C084102031D2D297B084E
:1002580040020318302931293529831203138514E4
:100268001D298312031385101D290A128A110E28CD
:1002780020308400A030F2000408F3002030F4009D
:100288007208840083130008F500F20A73088400DA
:1002980075088000F30AF40B44297008F20072070D
:1002A800203E8400000883120313C000840A00085B
:1002B800C1004108F1004008F00008003F34003454
:1002C800063400345B3400344F3400346634003470
:1002D8006D3400347D340034073400347F34003406
:1002E80067340034773400347C34003458340034B4
:1002F8005E34003479340034713400347008F2000C
:10030800F20DF20D831203131F087206C339720629
:100318009F001E08F200F3017208F4007308F5004C
:100328007508F1007408F00008003F340034063402
:1003380000345B3400344F340034663400346D3498
:1003480000347D340034783400347F34003467342A
:1003580000347E088A007F0882000A128A11AD21C3
:100368000A128A118000840A04087D0603190034E1
:08037800FF0A0319FE0AB12976
:04400E00D430FF3F6C
:00000001FF
