:060000000A128A110C280F
:10000800FE00030EF1000A08F2000A128A11B8294C
:100018000A128A110F28F701F801F901FA0183136E
:100028002030840034300A128A11BA240A128A1144
:1000380083010A128A1120280A128A11E3220A125D
:100048008A11FF3083120313C1004108AD00AB01D0
:100058002B080319302831283828B301B30AB10115
:10006800B10AAF01AF0A3B28B301B101AF01283093
:100078000A128A11A7240A128A1183120313330859
:10008800C100C2014108B7004208B8000A128A112B
:10009800F8230A128A11831203133808C00037089C
:1000A800BF000A128A1142230A128A11831203130B
:1000B8003F080A128A11A7240A128A112C300A1240
:1000C8008A11A7240A128A11831203133108C10066
:1000D800C2014108B7004208B8000A128A11F82381
:1000E8000A128A11831203133808C0003708BF00A8
:1000F8000A128A1142230A128A11831203133F0833
:100108000A128A11A7240A128A11831203133008CB
:10011800C100C2014108B7004208B8000A128A119A
:10012800F8230A128A11831203133808C00037080B
:10013800BF000A128A1142230A128A11831203137A
:100148003F080A128A11A7240A128A112C300A12AF
:100158008A11A7240A128A11831203132F08C100D7
:10016800C2014108B7004208B8000A128A11F823F0
:100178000A128A11831203133808C0003708BF0017
:100188000A128A1142230A128A11831203133F08A2
:100198000A128A11A7240A128A11831203132E083D
:1001A800C100C2014108B7004208B8000A128A110A
:1001B800F8230A128A11831203133808C00037087B
:1001C800BF000A128A1142230A128A1183120313EA
:1001D8003F080A128A11A7240A128A112C300A121F
:1001E8008A11A7240A128A11831203132608C10050
:1001F800C2014108B9004208BA000A128A118D24C6
:100208000A128A11831203133A08C0003908BF0082
:100218000A128A1142230A128A11831203133F0811
:100228000A128A11A7240A128A11831203132608B4
:10023800C100C2014108B9004208BA000A128A1175
:1002480025240A128A11831203133A08C0003908B8
:10025800BF000A128A1142230A128A118312031359
:100268003F080A128A11A7240A128A11831203135B
:100278002608C100C2014108B7004208B8000A12A6
:100288008A11F8230A128A11831203133808C0004E
:100298003708BF000A128A1142230A128A118312F0
:1002A80003133F080A128A11A7240A128A11293057
:1002B8000A128A11A7240A128A1101300A128A1115
:1002C80052240A128A11722900309600C330950010
:1002D8008829003096007E30950088298312031300
:1002E8002E08C100C2014208003A03197C29882956
:1002F8004108003A03196829013A03196D29882928
:100308000810A5290814A5293008C100C20142080F
:10031800003A03199029A5294108003A03198429AC
:10032800013A03198629A52908112C282D189D2979
:10033800A129831203130815A42983120313081192
:100348002C283308C100C2014208003A0319AD291C
:100358002C284108003A03199829013A03199A29C7
:100368002C280A128A110C28831203138C1EBD290B
:10037800BE29C3291A08F0007008A4009A018C1D30
:10038800C629C7292D2A1412141BCB29CC29D029F8
:10039800941FCF29D029D7291308F0007008A50089
:1003A80014139413141683160313941ADC29DD29E5
:1003B8000B2A1419E029E1290B2A831203131308C5
:1003C800F0007008A500141683160313141CED29F9
:1003D800EE29E829831203131308F0007008A60019
:1003E800A630F000F00BF629000083120313260351
:1003F800031DFF29002A032AAB01AB0A2B2A02306E
:100408002606031D082A092A2B2AAB012B2A941A2F
:100418000E2A0F2A2B2A141D122A132A2B2A83127A
:1004280003131308F0007008A500831603131410B3
:100438008312031393011416A630F000F00B222A3E
:1004480000008316031314182A2A2B2A252A83123C
:100458008C110C1C302A312A732A0130F0007008E4
:10046800F70706307702031C3A2A3B2A6E2A023025
:10047800880631080319412A422A532A0130F0001C
:100488007008F90706307902031C4B2A4C2A552AB2
:100498003008013AF0007008B000F901552AB0019F
:1004A800F9012F080319592A5A2A6B2A0130F0003A
:1004B8007008F80704307802031C632A642A6D2A3E
:1004C8002E08013AF0007008AE00F8016D2AAE015E
:1004D800F801F7013B308F00E0308E000C107208F5
:1004E8008A00710E8300FE0E7E0E0900831203132C
:1004F800B601F41F802A812A882AF309F409F30A2D
:100508000319F40AB601B60AF61F8B2A8C2A952A13
:10051800F509F609F50A0319F60A0130B40034089A
:10052800B606B701B8017308740403199C2A9D2AFA
:10053800D42AB501B50AAB2A01300310F30DF40D26
:10054800FF3E031DA12A0130B4003408B507F41F8B
:10055800AE2AAF2AA02A01300310B70DB80DFF3E0E
:10056800031DB02A74087602031DBC2A730875029D
:10057800031CBF2AC02AC72A7308F5027408031C83
:10058800F603F602371401300310F40CF30CFF3EA7
:10059800031DC82A0130B502031DD32AD42AAF2A65
:1005A80036080319D82AD92ADE2AB709B809B70A9A
:1005B8000319B80A3808F4003708F300080083164E
:1005C80003130F140F178F160F16831603178801BE
:1005D8008901831603138801831203138801831684
:1005E8000313871407159A010C3099001811831604
:1005F800031787118B170B17831603130C17181281
:100608008312031398178316031398168312031380
:100618001816831603138C168B170B1707308312C3
:1006280003139200F9308316031392008312031305
:1006380095019B010F309D000C3097008C1C252BD9
:10064800262B222B831603138710071183120313FB
:100658009016101690151015901010148316031389
:100668000C143B30831203138F00E0308E0060308F
:100678000A128A1173240A128A110800752B303065
:10068800BF000030C0009C2B3130BF000030C000DC
:100698009C2B3230BF000030C0009C2B3330BF0091
:1006A8000030C0009C2B3430BF000030C0009C2BB1
:1006B8003530BF000030C0009C2B3630BF00003002
:1006C800C0009C2B3730BF000030C0009C2B383056
:1006D800BF000030C0009C2B3930BF000030C00084
:1006E8009C2B831203134008003A03197C2B9C2B84
:1006F8003F08003A0319432B013A0319482B033AE0
:1007080003194D2B013A0319522B073A0319572B9A
:10071800013A03195C2B033A0319612B013A0319B7
:10072800662B0F3A03196B2B013A0319702B9C2B7C
:10073800080083120313B601F61FA32BA42BAB2BBF
:10074800F509F609F50A0319F60AB601B60AF41FFF
:10075800AE2BAF2BB42BF309F409F30A0319F40AEF
:10076800730874040319B92BBA2BE92BB501B50A20
:10077800C82B01300310F30DF40DFF3E031DBE2BF3
:100788000130B4003408B507F41FCB2BCC2BBD2B9C
:1007980074087602031DD22B73087502031CD52B2F
:1007A800D62BDC2B7308F5027408031CF603F6023B
:1007B80001300310F40CF30CFF3E031DDD2B013058
:1007C800B502031DE82BE92BCC2B36080319ED2BBA
:1007D800EE2BF32BF509F609F50A0319F60A760844
:1007E800F4007508F30008006430F3000030F400EA
:1007F800831203133808F6003708F5000A128A1125
:100808009D230A128A11740883120313BA0073080D
:10081800B9000A30F3000030F4003A08F60039084D
:10082800F5000A128A119D230A128A11740883128C
:100838000313BC007308BB003C08B8003B08B700B2
:1008480008006430F3000030F400831203133A0800
:10085800F6003908F5000A128A119D230A128A1136
:10086800740883120313BC007308BB000A30F3003A
:100878000030F4003C08F6003B08F5000A128A1123
:100888007A220A128A11740883120313BE007308AD
:10089800BD003E08BA003D08B9000800F400662C07
:1008A800831203130C1E592C5A2C542C74088400E0
:1008B8000A128A11B1240A128A1199000130F30030
:1008C8007308F407740884000A128A11B1240A1202
:1008D8008A11003A031D712C722C542C0800F30065
:1008E800730883160313930036308312031394009E
:1008F8008030831603139400013091008715071682
:100908008B170B17831203138C11831603138C1583
:1009180008006430F3000030F400831203133A082F
:10092800F6003908F5000A128A117A220A128A1189
:10093800740883120313BC007308BB003C08BA0098
:100948003B08B9000800F300831203130C1EAD2CFA
:10095800AE2CA82C73089900080004308A000408FB
:10096800840A820700340A340D340034640080019C
:0C097800840A0406031900340406BB2C9A
:04400E00C420FF3F8C
:00000001FF
