:020000040000FA
:060000000A128A110E280D
:10000800FE00030EF8000408F9000A08FA000A12B4
:100018008A15382F0A128A1111288313D430FD004B
:100028000730FE00C930FF00A03084000A128A158C
:1000380058240A128A11D701D801D901DA01DB0143
:10004800DC01DD01DE01DF01E001E101FC018301EA
:100058000A128A11902B8312031331088039B600D3
:100068003608BB003108B6003607B7003708C100AC
:10007800B01F3F284028412841144108031945284A
:1000880046285528410A031D4A284B285328003082
:10009800B1000030B0000030AF000030AE00B01743
:1000A8005D280030B1000030B0000030AF000030F3
:1000B800AE0035088039B6003608BB063508B600EC
:1000C8003607B7003708C000B41F6B286C286D28A6
:1000D800401440080319712872288128400A031D1A
:1000E800762877287F280030B5000030B40000302B
:1000F800B3000030B200B41789280030B5000030D2
:10010800B4000030B3000030B200400803198D2855
:100118008E2893284108031D922893289C28003094
:10012800B1000030B0000030AF000030AE008F2BBF
:100138002E08B6003608A00034080A128A152325AE
:100148000A128A11831203132108C7002008C60067
:100158004608B600B701B801B9013908BF00380828
:10016800BE003708BD003608BC004708B600B70116
:10017800B801B9013908C5003808C4003708C300F8
:100188003608C2002F08B6003608A00033080A1245
:100198008A1523250A128A11831203132108C7001E
:1001A8002008C6004608B600B701B801B9013608EC
:1001B800BC07370803110318013E0319E428BD07DB
:1001C800380803110318013E0319EB28BE07390844
:1001D80003110318013E0319F228BF074708B600A8
:1001E800B701B801B9013608C20737080311031867
:1001F800013E03190029C307380803110318013EFB
:1002080003190729C407390803110318013E031904
:100218000E29C5073008B6003608A00032080A12B1
:100228008A1523250A128A11831203132108C7008D
:100238002008C6004608B600B701B801B90136085B
:10024800BC07370803110318013E03192C29BD0701
:10025800380803110318013E03193329BE0739086A
:1002680003110318013E03193A29BF074708B600CE
:10027800B701B801B9013608C207370803110318D6
:10028800013E03194829C307380803110318013E22
:1002980003194F29C407390803110318013E03192C
:1002A8005629C5070830B6000310BC0DBD0DBE0D9C
:1002B800BF0DB60B58292F08B6003608A000320823
:1002C8000A128A1523250A128A1183120313210898
:1002D800C7002008C6004608B6004708B700B8019E
:1002E800B9013608BC07370803110318013E031982
:1002F8007E29BD07380803110318013E0319852913
:10030800BE07390803110318013E03198C29BF07DA
:100318002E08B6003608A00033080A128A152325CD
:100328000A128A11831203132108C7002008C60085
:100338004608B6004708B700B801B9013608BC0737
:10034800370803110318013E0319AB29BD07380804
:1003580003110318013E0319B229BE073908031116
:100368000318013E0319B929BF070830B600031066
:10037800BC0DBD0DBE0DBF0DB60BBB292E08B600BA
:100388003608A00032080A128A1523250A128A1193
:10039800831203132108C7002008C6004608B600C8
:1003A8004708B700B801B9013608BC073708031178
:1003B8000318013E0319E129BD0738080311031882
:1003C800013E0319E829BE07390803110318013E45
:1003D8000319EF29BF072F08B6003608A000340814
:1003E8000A128A1523250A128A1183120313210877
:1003F800C7002008C6004608B6004708B700B8017D
:10040800B9013608C207370803110318013E03195A
:100418000E2AC307380803110318013E0319152AC9
:10042800C407390803110318013E03191C2AC5071C
:100438003008B6003608A00033080A128A152325AA
:100448000A128A11831203132108C7002008C60064
:100458004608B6004708B700B801B9013608C20710
:10046800370803110318013E03193B2AC30738084C
:1004780003110318013E0319422AC407390803115E
:100488000318013E0319492AC5073008B600360883
:10049800A00034080A128A1523250A128A11831229
:1004A80003132108C7002008C6004608B6004708FD
:1004B800B700B801B90108300310B60DB70DB80D73
:1004C800B90DFF3E031D602A3608C207370803111D
:1004D8000318013E0319712AC307380803110318CA
:1004E800013E0319782AC407390803110318013E8D
:1004F80003197F2AC5073C08B6003D08B7003E0827
:10050800B8003F08B90018300310B90CB80CB70C84
:10051800B60CFF3E031D882A3608C20737080311A8
:100528000318013E0319992AC30738080311031851
:10053800013E0319A02AC407390803110318013E14
:100548000319A72AC5070830B6000310BC0DBD0D56
:10055800BE0DBF0DB60BA92A41084007B600B7016A
:10056800B70D3608823EC60037080318013EFF3E25
:10057800C700DB2A0130B6000310C20DC30DC40D3D
:10058800C50DB60BC02ABF1FCA2ACB2ACC2A4214D3
:100598000130B6000310BC0DBD0DBE0DBF0DB60B6E
:1005A800CE2AFF30C6070318C70AFF30C707C41F83
:1005B800DE2ADF2ABE2AC001BF1FE32AE42A002B55
:1005C800FF303C05B600FF303D05B700FF303E0563
:1005D800B8007F303F05B9003908380437043604BD
:1005E8000319F72AF82AFB2AC001C00A002B421C6B
:1005F800FE2AFF2A002BF82A40080319042B052B92
:10060800362B0130C207003003180130C307003011
:1006180003180130C407003003180130C507451C12
:10062800162B172B362B4208B6004308B700440890
:10063800B8004508B9000130BA00390DB90CB80C3A
:10064800B70CB60CBA0B212B3908C5003808C40002
:100658003708C3003608C2000130C6070318C70AA6
:100668000030C7074708803AFF0080307F02031D2B
:100678003F2BFF304602031C422B432B4E2B7F306F
:1006880083120313C5008030C4000030C30000305B
:10069800C200832B831203134708803AFF0080307F
:1006A8007F02031D592B0130460203185C2B5D2B7A
:1006B800692B003083120313C5000030C4000030DA
:1006C800C3000030C200BB01832B8312031346080A
:1006D800B6003608C100FF30C205FF30C3057F30C1
:1006E800C4050030C505411C7A2B7B2B7C2BC41715
:1006F8004108B6000310360CB7003708C5003B08A0
:10070800B6003608C5044508B1004408B0004308DF
:10071800AF004208AE0008000A128A15E2250A1244
:100728008A11FB01FB0A0A128A152D260A128A1160
:100738000F300A128A157E240A128A1183120313B3
:10074800A301A30A01300A128A15D4240A128A11B5
:1007580001300A128A15FA240A128A118312031325
:100768009F142B306106031DBA2BBB2BC12B013004
:10077800860783120313E101CA2B2D306106031D7E
:10078800C62BC72BCA2B01308602BD2B5F08A000E1
:100798006008A100A201A30100300A128A11912663
:1007A8000A128A11831203132308B5002208B40021
:1007B8002108B3002008B2003E30B1004830B00034
:1007C800B430AF003930AE000A128A112F200A1255
:1007D8008A11831203133108CB003008CA002F088E
:1007E800C9002E08C8000A128A114D270A128A1158
:1007F800831203134908DC004808DB005D08A000E9
:100808005E08A100A201A30100300A128A119126F4
:100818000A128A11831203132308B5002208B400B0
:100828002108B3002008B2003E30B1004830B000C3
:10083800B430AF003930AE000A128A112F200A12E4
:100848008A11831203133108CB003008CA002F081D
:10085800C9002E08C8000A128A114D270A128A11E7
:10086800831203134908DA004808D9000608D300A0
:10087800D401D501D6015608A3005508A200540892
:10088800A1005308A00001300A128A1191260A1209
:100898008A11831203132308B5002208B400210823
:1008A800B3002008B2003E30B1004830B000B43088
:1008B800AF003930AE000A128A112F200A128A11AD
:1008C800831203133108CB003008CA002F08C9006F
:1008D8002E08C8000A128A114D270A128A1183129B
:1008E80003134908D8004808D7007C0803197D2C51
:1008F8007E2CB22B1F300A128A15B3240A128A11D1
:10090800831203135C08AA005B08A9000A128A155F
:100918004C250A128A11831203132A08B0002908E9
:10092800AF000A128A15DD260A128A1183120313F0
:100938002F080A128A154A240A128A112E300A121E
:100948008A154A240A128A11831203135C08A80024
:100958005B08A7000A128A1579250A128A118312E0
:1009680003132808B0002708AF000A128A15DD26ED
:100978000A128A11831203132F080A128A154A24AD
:100988000A128A1156300A128A154A240A128A1142
:1009980083120313A301A30A02300A128A15D4246E
:1009A8000A128A11831203135C08AA005B08A900C3
:1009B8000A128A154C250A128A11831203132A086F
:1009C800B0002908AF000A128A15DD260A128A111A
:1009D800831203132F080A128A1597240A128A1100
:1009E800023083120313D3005308A30002300A1203
:1009F8008A15D4240A128A112E300A128A159724CD
:100A08000A128A11033083120313D3005308A30078
:100A180002300A128A15D4240A128A118312031387
:100A28005C08A8005B08A7000A128A1579250A1233
:100A38008A11831203132808B0002708AF000A128E
:100A48008A15DD260A128A11831203132F080A1247
:100A58008A1597240A128A11043083120313D300CB
:100A68005308A30002300A128A15D4240A128A11E4
:100A780056300A128A1597240A128A1112300A125D
:100A88008A15B3240A128A11831203135A08AA007A
:100A98005908A9000A128A154C250A128A118312CC
:100AA80003132A08B0002908AF000A128A15DD26A8
:100AB8000A128A11831203132F080A128A154A246C
:100AC8000A128A112E300A128A154A240A128A1129
:100AD800831203135A08A8005908A7000A128A1596
:100AE80079250A128A11831203132808B0002708EF
:100AF800AF000A128A15DD260A128A11831203131F
:100B08002F080A128A154A240A128A1156300A1224
:100B18008A154A240A128A11073083120313D30054
:100B28005308A30002300A128A15D4240A128A1123
:100B3800831203135A08AA005908A9000A128A1531
:100B48004C250A128A11831203132A08B0002908B7
:100B5800AF000A128A15DD260A128A1183120313BE
:100B68002F080A128A1597240A128A11083083124C
:100B78000313D3005308A30002300A128A15D424A1
:100B88000A128A112E300A128A1597240A128A111B
:100B9800093083120313D3005308A30002300A124A
:100BA8008A15D4240A128A11831203135A08A8003A
:100BB8005908A7000A128A1579250A128A11831280
:100BC80003132808B0002708AF000A128A15DD268B
:100BD8000A128A11831203132F080A128A159724FE
:100BE8000A128A110A3083120313D3005308A30090
:100BF80002300A128A15D4240A128A1156300A12AF
:100C08008A1597240A128A110D3083120313D30010
:100C18005308A30002300A128A15D4240A128A1132
:100C2800831203135808AA005708A9000A128A1544
:100C38004C250A128A11831203132A08B0002908C6
:100C4800AF000A128A15DD260A128A1183120313CD
:100C58002F080A128A1597240A128A110E30831255
:100C68000313D3005308A30002300A128A15D424B0
:100C78000A128A112E300A128A1597240A128A112A
:100C88000F3083120313D3005308A30002300A1253
:100C98008A15D4240A128A11831203135808A8004B
:100CA8005708A7000A128A1579250A128A11831291
:100CB80003132808B0002708AF000A128A15DD269A
:100CC8000A128A11831203132F080A128A1597240D
:100CD8000A128A11103083120313D3005308A30099
:100CE80002300A128A15D4240A128A1156300A12BE
:100CF8008A1597240A128A112C300A128A15B324ED
:100D08000A128A112A300A128A15B3240A128A1181
:100D1800FC01B22B0A128A110E2883120313A800B1
:100D280028080319982E992EAD2EA31F9C2E9D2EB0
:100D3800AD2E2009AA002109AB002209AC00230925
:100D4800AD00AA0A0319AB0A0319AC0A0319AD0AC4
:100D5800B52E2308AD002208AC002108AB002008FE
:100D6800AA002308220421042004031DBC2EBD2E42
:100D7800C62E0030A3000030A2000030A1000030D1
:100D8800A0004C2F9630A4002408A900D82E0130CA
:100D9800A4002408A90701300310AD0CAC0CAB0C5F
:100DA800AA0CFF3E031DD02EFE302D05031DDD2E9F
:100DB800DE2ECB2EFA2E0130A4002408A90701301C
:100DC800AA07003003180130AB07003003180130C0
:100DD800AC07003003180130AD0701300310AD0C2B
:100DE800AC0CAB0CAA0CFF3E031DF22EFF302D05F8
:100DF800031DFF2E002FDF2E0C2F0130A90201301A
:100E0800A4000310AA0DAB0DAC0DAD0DA40B052F5E
:100E1800AC1B0F2F102F162F023029020318152F85
:100E2800162F012F2918192F1A2F222FFF30AA0544
:100E3800FF30AB057F30AC05FF30AD050310A90CC2
:100E48002908A400A501A601A70118300310A40DC4
:100E5800A50DA60DA70DFF3E031D2A2F2408AA04E1
:100E68002508AB042608AC042708AD042808031994
:100E78003E2F3F2F442FA31F422F432F442FAD1740
:100E88002D08A3002C08A2002B08A1002A08A00006
:100E980008000310831203134A0D4B0DCC004C08B5
:100EA800D2005208031D592F5A2F632F0030CB0050
:100EB8000030CA000030C9000030C800C82F4808F8
:100EC800CC004908CD004A08CE004B08CF001F309F
:100ED8000310CF0CCE0CCD0CCC0CFF3E031D6C2F99
:100EE8004C08D0005008D100CA17FF30C805FF30A1
:100EF800C905FF30CA050030CB059630D202D21F93
:100F0800862F872FA12F5208803A973E03188D2FDE
:100F18008E2F8F2F5A2F01300310CB0CCA0CC90CFF
:100F2800C80CFF3E031D902F0130CC004C08D2079F
:100F3800031D9F2FA02F8F2FB82F20305202031C84
:100F4800A62FA72FB32F5A2F0130CC000310C80D9E
:100F5800C90DCA0DCB0DCC0BAA2F0130D2025208F5
:100F6800031DB72FB82FA82F51080319BC2FBD2F69
:100F7800C82FC809C909CA09CB09C80A0319C90A67
:100F88000319CA0A0319CB0A08003F34003406348F
:100F980000345B3400344F340034663400346D342C
:100FA80000347D340034073400347F34003467342F
:100FB8000034773400347C340034583400345E34E0
:100FC800003479340034713400343F34003406344A
:100FD80000345B3400344F340034663400346D34EC
:100FE80000347D340034783400347F34003467347E
:020FF8000034C3
:1010000008308A000408840A8207003420345334EC
:1010100031343A34203420342034533432343A34A6
:10102000203420342034533433343A3400342034E0
:101030002034533445344E3453344F3452342034F6
:1010400032343A3420340034533445344E3453343B
:101050004F345234203431343A34203400340A349A
:0610600000340D340034E1
:1018940083120313A0000C1E502C512C4D2C200835
:1018A400990008007E088A007F0882000A128A15BF
:1018B40054240A128A158000840A04087D06031938
:1018C4000034FF0A0319FE0A582C7008F200F20DC6
:1018D400F20D831203131F087206C33972069F00A8
:1018E4001E08F200F3017208F4007308F50075088D
:1018F400F1007408F000080083120313A200091019
:1019040022080A128A15A6250A128A1583120313BD
:101914008914C73083120313A100902CA10B8F2CC0
:10192400932C831203138910080083120313A2005B
:101934002208A1002108A300091423080A128A1509
:10194400A6250A128A1583120313891402308312FE
:101954000313A100A10BAC2C000083120313891004
:10196400080083120313A100C72C0C1EBA2CBB2C35
:10197400B72C210884000A128A1500200A128A153D
:1019840099000130A0002008A107210884000A1250
:101994008A1500200A128A15003A031DD22CD32C72
:1019A400B72C080083120313A5002503031DDB2CA9
:1019B400DC2CE82C23087F3EA4002408A60026087B
:1019C4000A128A157E240A128A15F92C0230250679
:1019D400031DED2CEE2CF92C2308BF3EA400240893
:1019E400A60026080A128A157E240A128A150800FF
:1019F40083120313A600A401A501152D24082607AC
:101A040084000A128A1500200A128A150A128A15FD
:101A140097240A128A15013083120313A4070318AA
:101A2400A50A0030A5072408260784000A128A158F
:101A340000200A128A15003A031D212D222D002DA3
:101A4400080083120313A800A401A5012008A20022
:101A5400A3012208A6002308A700281C322D332D39
:101A6400392D2608A4070318A50A2708A50701305D
:101A74000310A60DA70DFF3E031D3A2D0310A80C5D
:101A84002808031D462D472D2F2D2508A1002408C5
:101A9400A0000800643083120313A0000030A100EA
:101AA4002A08A3002908A2000A128A1582260A120B
:101AB4008A15831203132108AC002008AB000A30F6
:101AC400A0000030A1002C08A3002B08A2000A12D9
:101AD4008A1597270A128A15831203132108AE0068
:101AE4002008AD002E08AA002D08A90008006430C3
:101AF40083120313A0000030A1002808A3002708C4
:101B0400A2000A128A1582260A128A158312031366
:101B14002108AA002008A9000A30A0000030A10072
:101B24002A08A3002908A2000A128A1582260A128A
:101B34008A15831203132108AC002008AB002C087B
:101B4400A8002B08A700080083120313A000201C80
:101B5400AC2DAD2DAF2D0814B02D0810A01CB32D45
:101B6400B42DB62D8814B72D8810201DBA2DBB2D89
:101B7400BD2D0815BE2D0811A01DC12DC22DC42DCB
:101B84008815C52D8811201EC82DC92DCB2D0816EA
:101B9400CC2D0812A01ECF2DD02DD22D8816D32DDA
:101BA4008812201FD62DD72DD92D0817DA2D08130A
:101BB400A01FDD2DDE2DE02D8817E12D88130800F0
:101BC400831603130F140F178F120F12033083128F
:101BD40003138500860189018801033083160317E6
:101BE4008800890103308316031385008601880168
:101BF40089018B170B170C179A01193099001815C6
:101C040083160317871583160313181283120313FD
:101C14009817831603139816831203131816831642
:101C240003138C169F121F129F133F30831203134A
:101C34009F050C131F149016101690151015901074
:101C44001014831603130C140B30831203138F0028
:101C540047308E00080000300A128A157E240A12CA
:101C64008A1500300A128A15A6250A128A15073029
:101C740083120313A4007C30A300A30B3F2EA40BF8
:101C84003F2E00003F300A128A157E240A128A155C
:101C9400F93083120313A3004F2EA30B4E2E522EA2
:101CA4003F300A128A157E240A128A1504308312E0
:101CB4000313A4009030A300A30B5E2EA40B5E2E8E
:101CC40000003F300A128A157E240A128A153F301A
:101CD4000A128A157E240A128A1508300A128A15F5
:101CE4007E240A128A1501300A128A157E240A12E9
:101CF4008A1506300A128A157E240A128A150800EB
:101D040083120313A601A31F882E892E902EA209E5
:101D1400A309A20A0319A30AA601A60AA11F932EC6
:101D2400942E992EA009A109A00A0319A10A20083A
:101D3400210403199E2E9F2ECE2EA501A50AAD2E99
:101D440001300310A00DA10DFF3E031DA32E013091
:101D5400A4002408A507A11FB02EB12EA22E21088D
:101D64002302031DB72E20082202031CBA2EBB2E09
:101D7400C12E2008A2022108031CA303A3020130E0
:101D84000310A10CA00CFF3E031DC22E0130A502BE
:101D9400031DCD2ECE2EB12E26080319D22ED32EFE
:101DA400D82EA209A309A20A0319A30A2308A10091
:101DB4002208A0000800102F3030AF000030B0001F
:101DC400372F3130AF000030B000372F3230AF0042
:101DD4000030B000372F3330AF000030B000372F61
:101DE4003430AF000030B000372F3530AF00003052
:101DF400B000372F3630AF000030B000372F373007
:101E0400AF000030B000372F3830AF000030B000E2
:101E1400372F3930AF000030B000372F831203134F
:101E24003008003A0319172F372F2F08003A0319E7
:101E3400DE2E013A0319E32E033A0319E82E013A80
:101E44000319ED2E073A0319F22E013A0319F72E5E
:101E5400033A0319FC2E013A0319012F0F3A03190F
:101E6400062F013A03190B2F372F0800831203138F
:101E74008C1E3D2F3E2F432F1A08F6007608E100F2
:101E84009A010C1F462F472F7E2F6E2F0130F00032
:101E94000030F1000A128A1567240A128A157108A3
:101EA40083120313E0007008DF000230F6007608A6
:101EB400FB000C137E2F0030F000F1000A128A158B
:101EC40067240A128A15710883120313DE0070084E
:101ED400DD00FB01FB0A5B2F7B08F600F7017708A6
:101EE400003A0319762F7E2F7608013A0319482FFA
:101EF400033A03195D2F7E2F0C1C812F822F8E2F06
:101F04007C08031D862F872F892FFC01FC0A0B30C8
:101F14008F0047308E000C107A088A0079088400FC
:101F2400780E8300FE0E7E0E090083120313A601B1
:101F3400A11F9D2F9E2FA52FA009A109A00A031957
:101F4400A10AA601A60AA31FA82FA92FB22FA2098E
:101F5400A309A20A0319A30A0130A4002408A606AF
:101F6400A701A801200821040319B92FBA2FF12FC2
:101F7400A501A50AC82F01300310A00DA10DFF3E35
:101F8400031DBE2F0130A4002408A507A11FCB2FD9
:101F9400CC2FBD2F01300310A70DA80DFF3E031D4C
:101FA400CD2F21082302031DD92F20082202031C50
:101FB400DC2FDD2FE42F2008A2022108031CA30339
:101FC400A302271401300310A10CA00CFF3E031D33
:101FD400E52F0130A502031DF02FF12FCC2F260889
:101FE4000319F52FF62FFB2FA709A809A70A031930
:0C1FF400A80A2808A1002708A000080087
:04400E00C430FF3F7C
:00000001FF
