:060000000A128A110C280F
:10000800FE00030EF1000A08F2000A128A15A72959
:100018000A128A110F28831603130A128A11FC2761
:100028000A128A11B2008313A0308400AD300A1678
:100038008A11C4230A128A11633084006F300A16A9
:100048008A11C4230A128A11F801F901FA018301FD
:100058000A128A112F280A128A154C200A128A11AC
:1000680083120313E601FA01E501E3018316031382
:10007800A9010A128A159B200A128A110F300A1642
:100088008A1119240A128A11831203136A08831623
:100098000313AD00AE01AF01B0013008F6002F0820
:1000A800F5002E08F4002D08F30001300A128A1119
:1000B800B5250A128A11760883120313B100750850
:1000C800B0007408AF007308AE003F30AD003430A4
:1000D800AC00AF30AB004F30AA000A128A159F243B
:1000E8000A128A11831203132D08CB002C08CA00A8
:1000F8002B08C9002A08C800C230C7008830C600CB
:100108000030C5000030C4000A168A1178250A128A
:100118008A11831203134708DB004608DA004508F2
:10012800D9004408D8000A128A1171260A128A11C5
:1001380083120313580883160313B100310883127E
:100148000313EE00690883160313AD00AE01AF0177
:10015800B0013008F6002F08F5002E08F4002D082D
:10016800F30001300A128A11B5250A128A1176089D
:1001780083120313B1007508B0007408AF00730848
:10018800AE003F30AD003430AC00AF30AB004F3084
:10019800AA000A128A159F240A128A1183120313CD
:1001A8002D08CB002C08CA002B08C9002A08C80053
:1001B800C230C7008830C6000030C5000030C40017
:1001C8000A168A1178250A128A118312031347081E
:1001D800DB004608DA004508D9004408D8000A12AE
:1001E8008A1171260A128A1183120313580883167A
:1001F8000313B100310883120313ED006808831656
:100208000313AD00AE01AF01B0013008F6002F08AE
:10021800F5002E08F4002D08F30001300A128A11A7
:10022800B5250A128A11760883120313B1007508DE
:10023800B0007408AF007308AE003E30AD00C8309F
:10024800AC00C130AB005530AA000A128A159F24B1
:100258000A128A11831203132D08CB002C08CA0036
:100268002B08C9002A08C8003F30C7008030C600E4
:100278000030C5000030C4000A168A1178250A1219
:100288008A11831203134708DB004608DA00450881
:10029800D9004408D8000A128A1171260A128A1154
:1002A80083120313580883160313B100310883120D
:1002B8000313EC00670883160313AD00AE01AF010A
:1002C800B0013008F6002F08F5002E08F4002D08BC
:1002D800F30001300A128A11B5250A128A1176082C
:1002E80083120313B1007508B0007408AF007308D7
:1002F800AE003E30AD00C830AC00C130AB00553068
:10030800AA000A128A159F240A128A11831203135B
:100318002D08CB002C08CA002B08C9002A08C800E1
:100328003F30C7008030C6000030C5000030C40030
:100338000A168A1178250A128A11831203134708AC
:10034800DB004608DA004508D9004408D8000A123C
:100358008A1171260A128A11831203135808831608
:100368000313B100310883120313EB008316031340
:1003780028080319C029C129382B0A168A11CC2349
:100388000A128A115030F3000030F4000A168A115C
:10039800DE230A128A118030F3000030F4000A16B6
:1003A8008A11DE230A128A110A168A11D5230A1223
:1003B8008A11033083160313AF000830AE0076307D
:1003C800AD00AD0BE529AE0BE529AF0BE529000023
:1003D8000A168A11CC230A128A115130F300003010
:1003E800F4000A168A11DE230A128A110030F3007B
:1003F800F4000A168A1140250A128A117308831616
:100408000313AD002D0883120313EA000A168A119C
:10041800D5230A128A11033083160313AF0008305C
:10042800AE007630AD00AD0B172AAE0B172AAF0B16
:10043800172A00000A168A11CC230A128A11503092
:10044800F3000030F4000A168A11DE230A128A111A
:100458004030F3000030F4000A168A11DE230A1235
:100468008A110A168A11D5230A128A1103308316B3
:100478000313AF000830AE007630AD00AD0B422A52
:10048800AE0B422AAF0B422A00000A168A11CC236F
:100498000A128A115130F3000030F4000A168A114A
:1004A800DE230A128A110030F300F4000A168A11BA
:1004B80040250A128A11730883160313AD002D080C
:1004C80083120313E9000A168A11D5230A128A1126
:1004D800033083160313AF000830AE007630AD004A
:1004E800AD0B742AAE0B742AAF0B742A00000A16DF
:1004F8008A11CC230A128A115030F3000030F4001C
:100508000A168A11DE230A128A11C030F30000305D
:10051800F4000A168A11DE230A128A110A168A11B1
:10052800D5230A128A11033083160313AF0008304B
:10053800AE007630AD00AD0B9F2AAE0B9F2AAF0BF5
:100548009F2A00000A168A11CC230A128A115130F8
:10055800F3000030F4000A168A11DE230A128A1109
:100568000030F300F4000A168A1140250A128A1195
:10057800730883160313AD002D0883120313E800D4
:100588000A168A11D5230A128A1103308316031317
:10059800AF000830AE007630AD00AD0BD12AAE0BFF
:1005A800D12AAF0BD12A00000A168A11CC230A12CD
:1005B8008A115030F3000030F4000A168A11DE2345
:1005C8000A128A112030F3000030F4000A168A114A
:1005D800DE230A128A110A168A11D5230A128A11F1
:1005E800033083160313AF000830AE007630AD0039
:1005F800AD0BFC2AAE0BFC2AAF0BFC2A00000A1636
:100608008A11CC230A128A115130F3000030F40009
:100618000A168A11DE230A128A110030F300F40048
:100628000A168A1140250A128A11730883160313C1
:10063800AD002D0883120313E7000A168A11D5238B
:100648000A128A11033083160313AF000830AE0074
:100658007630AD00AD0B2E2BAE0B2E2BAF0B2E2B09
:10066800000083160313A8018312031364080319F7
:100678003E2B3F2B502B0A128A1505200A128A118D
:10068800831203136508013A83160313AD002D087E
:1006980083120313E500E40165080319542B552B55
:1006A800072CF701F70A01300A168A116E240A127C
:1006B8008A110F300A168A1194240A128A11F70136
:1006C800F70A02300A168A116E240A128A111D309E
:1006D8000A168A1194240A128A11831203136B08CA
:1006E80083160313AD00AE012D0883120313A40073
:1006F800831603132E0883120313A5000A168A1102
:10070800FF230A128A11831203132508AB00240859
:10071800AA000A128A154C210A128A11831203139D
:100728002A080A168A1133240A128A11831203131B
:100738006B0883160313AD00AE012D088312031353
:10074800A400831603132E0883120313A5000A16A8
:100758008A11E6240A128A11831203132508AB00B2
:100768002408AA000A128A154C210A128A11831237
:1007780003132A080A168A1133240A128A118312CB
:1007880003136B0883160313AD00AE012D08831203
:100798000313A200831603132E0883120313A30066
:1007A8000A168A1113250A128A11831203132308C1
:1007B800AB002208AA000A128A154C210A128A11D3
:1007C800831203132A080A168A1133240A128A117B
:1007D8001C300A168A1194240A128A1179080A16FA
:1007E8008A1133240A128A1178080A168A113324C6
:1007F8000A128A11831603132B080A168A11332446
:100808000A128A11AA2D6508031D0B2C0C2CAA2D7F
:10081800F701F70A01300A168A116E240A128A11A2
:1008280001300A168A1194240A128A11F70102303B
:100838000A168A116E240A128A111D300A168A11A4
:1008480094240A128A11831203136E088316031361
:10085800AD00AE012D0883120313A4008316031301
:100868002E0883120313A5000A168A11FF230A1201
:100878008A11831203132508AB002408AA000A1260
:100888008A154C210A128A11831203132A080A16A0
:100898008A1133240A128A11831203136E088316ED
:1008A8000313AD00AE012D0883120313A4008316B1
:1008B80003132E0883120313A5000A168A11E624CF
:1008C8000A128A11831203132508AB002408AA0010
:1008D8000A128A154C210A128A11831203132A0854
:1008E8000A168A1133240A128A11831203136E0816
:1008F80083160313AD00AE012D0883120313A20063
:10090800831603132E0883120313A3000A168A11F1
:1009180013250A128A11831203132308AB00220835
:10092800AA000A128A154C210A128A11831203138B
:100938002A080A168A1133240A128A111F300A1645
:100948008A1194240A128A11831203136D088316DC
:100958000313AD00AE012D0883120313A400831600
:1009680003132E0883120313A5000A168A11FF2306
:100978000A128A11831203132508AB002408AA005F
:100988000A128A154C210A128A11831203132A08A3
:100998000A168A1133240A128A11831203136D0866
:1009A80083160313AD00AE012D0883120313A400B0
:1009B800831603132E0883120313A5000A168A113F
:1009C800E6240A128A11831203132508AB002408AF
:1009D800AA000A128A154C210A128A1183120313DB
:1009E8002A080A168A1133240A128A118312031359
:1009F8006D0883160313AD00AE012D08831203138F
:100A0800A200831603132E0883120313A3000A16E9
:100A18008A1113250A128A11831203132308AB00C3
:100A28002208AA000A128A154C210A128A11831276
:100A380003132A080A168A1133240A128A111F304E
:100A48000A168A1194240A128A11831203136C0855
:100A580083160313AD00AE012D0883120313A400FF
:100A6800831603132E0883120313A5000A168A118E
:100A7800FF230A128A11831203132508AB002408E6
:100A8800AA000A128A154C210A128A11831203132A
:100A98002A080A168A1133240A128A1183120313A8
:100AA8006C0883160313AD00AE012D0883120313DF
:100AB800A400831603132E0883120313A5000A1635
:100AC8008A11E6240A128A11831203132508AB003F
:100AD8002408AA000A128A154C210A128A118312C4
:100AE80003132A080A168A1133240A128A11831258
:100AF80003136C0883160313AD00AE012D0883128F
:100B08000313A200831603132E0883120313A300F2
:100B18000A168A1113250A128A118312031323084D
:100B2800AB002208AA000A128A154C210A128A115F
:100B3800831203132A080A168A1133240A128A1107
:100B480022300A168A1194240A128A118312031376
:100B580063080319B22D0A128A150A2A0A128A157D
:100B68001D2C83120313A40024080319BC2DBD2DCA
:100B7800D12DF61FC02DC12DD12D7309A6007409E2
:100B8800A7007509A8007609A900A60A0319A70AEB
:100B98000319A80A0319A90AD92D7608A900750806
:100BA800A8007408A7007308A600760875047404E2
:100BB8007304031DE02DE12DEA2D0030F60000300E
:100BC800F5000030F4000030F300702E9630A000DD
:100BD8002008A500FC2D0130A0002008A507013041
:100BE8000310A90CA80CA70CA60CFF3E031DF42D9E
:100BF800FE302905031D012E022EEF2D1E2E013079
:100C0800A0002008A5070130A6070030031801300E
:100C1800A707003003180130A80700300318013077
:100C2800A90701300310A90CA80CA70CA60CFF3EBD
:100C3800031D162EFF302905031D232E242E032EF7
:100C4800302E0130A5020130A0000310A60DA70D1B
:100C5800A80DA90DA00B292EA81B332E342E3A2E31
:100C6800023025020318392E3A2E252E25183D2E3E
:100C78003E2E462EFF30A605FF30A7057F30A8057B
:100C8800FF30A9050310A50C2508A000A101A201A9
:100C9800A30118300310A00DA10DA20DA30DFF3E56
:100CA800031D4E2E2008A6042108A7042208A80424
:100CB8002308A90424080319622E632E682EF61F40
:100CC800662E672E682EA9172908F6002808F50051
:100CD8002708F4002608F300080003108312031302
:100CE8005A0D5B0DDC005C08E2006208031D7D2ED6
:100CF8007E2E872E0030DB000030DA000030D9006D
:100D08000030D800EC2E5808DC005908DD005A08DD
:100D1800DE005B08DF001F300310DF0CDE0CDD0C8B
:100D2800DC0CFF3E031D902E5C08E0006008E1002B
:100D3800DA17FF30D805FF30D905FF30DA05003063
:100D4800DB059630E202E21FAA2EAB2EC52E620802
:100D5800803A973E0318B12EB22EB32E7E2E013064
:100D68000310DB0CDA0CD90CD80CFF3E031DB42E93
:100D78000130DC005C08E207031DC32EC42EB32E2D
:100D8800DC2E20306202031CCA2ECB2ED72E7E2EDC
:100D98000130DC000310D80DD90DDA0DDB0DDC0BAA
:100DA800CE2E0130E2026208031DDB2EDC2ECC2E93
:100DB80061080319E02EE12EEC2ED809D909DA09C9
:100DC800DB09D80A0319D90A0319DA0A0319DB0A55
:100DD800080083120313A101F41FF32EF42EFB2E37
:100DE800F309F409F30A0319F40AA101A10AF61F89
:100DF800FE2EFF2E082FF509F609F50A0319F60A43
:100E08000130F7007708A106A201A3017308740452
:100E180003190F2F102F472FA001A00A1E2F0130F2
:100E28000310F30DF40DFF3E031D142F0130F700DE
:100E38007708A007F41F212F222F132F013003104A
:100E4800A20DA30DFF3E031D232F74087602031D78
:100E58002F2F73087502031C322F332F3A2F730874
:100E6800F5027408031CF603F6022214013003107D
:100E7800F40CF30CFF3E031D3B2F0130A002031DB1
:100E8800462F472F222F210803194B2F4C2F512F64
:100E9800A209A309A20A0319A30A2308F400220835
:100EA800F3000800003083120313AB000030AA00DF
:100EB8000030A9000030A8002308220421042004DF
:100EC8000319672F682FB52FAC01AC0A782F0130B2
:100ED800F3000310A00DA10DA20DA30DF30B6D2FB0
:100EE8000130F3007308AC07A31F7B2F7C2F6B2FF7
:100EF8000130F3000310A80DA90DAA0DAB0DF30BDB
:100F08007E2F23082702031D932F22082602031D84
:100F1800932F21082502031D932F20082402031C68
:100F2800962F972FA62F2008A4022108031C210F13
:100F3800A5022208031C220FA6022308031C230F64
:100F4800A702281401300310A30CA20CA10CA00CBA
:100F5800FF3E031DA72F0130AC02031DB42FB52F90
:100F68007C2F2B08A3002A08A2002908A100280822
:100F7800A0000800F300731CC22FC32FC72F8312D1
:100F880003130814CA2F831203130810F31CCD2F60
:100F9800CE2FD02F8814D12F8810731DD42FD52F82
:100FA800D72F0815D82F0811F31DDB2FDC2FDE2FC4
:100FB8008815DF2F8811731EE22FE32FE52F0816FF
:100FC800E62F0812F31EE92FEA2FEC2F8816ED2FD3
:100FD8008812731FF02FF12FF32F0817F42F08131F
:100FE800F31FF72FF82FFA2F8817FB2F8813080005
:020FF8001C34A7
:10100A0000300A168A1119240A128A1501300A16A2
:10101A008A1119240A128A15080028308312031328
:10102A009400831603139101831203132D08F4000D
:10103A002E08F5002F08F6003008F70002300310DA
:10104A00F40DF50DF60DF70DFF3E031D2428770864
:10105A00A3007608A2007508A1007408A000003059
:10106A00A7007A30A6001230A5000030A4000A12A8
:10107A008A1156270A128A15831203132008FF3E83
:10108A008316031393009401871507160800831625
:10109A0003130F140F178F160F16831603178801E1
:1010AA008901831603138601880109108910091121
:1010BA00831203138601880109108B170B178316F5
:1010CA0003139A010C30990018118316031787111C
:1010DA008316031318128312031398178316031324
:1010EA009816831203131816831603138C16831289
:1010FA0003139016101690151015901010148316DD
:10110A0003130C143B30831203138F00E0308E005C
:10111A000030B0000130AF008630AE00A030AD0024
:10112A000A128A1512200A128A15080000300A16B5
:10113A008A1119240A128A1500300A128A11BE2746
:10114A000A128A15343083120313A100F130A00069
:10115A00A00BAD28A10BAD283F300A168A1119241D
:10116A000A128A150D3083120313A100FB30A00066
:10117A00A00BBD28A10BBD283F300A168A111924DD
:10118A000A128A151D3083120313A1009030A000A1
:10119A00A00BCD28A10BCD2800003F300A168A11DA
:1011AA0019240A128A153F300A168A1119240A12BA
:1011BA008A1508300A168A1119240A128A1501306A
:1011CA000A168A1119240A128A1506300A168A1171
:1011DA0019240A128A15080083120313A101F61FA3
:1011EA00F728F828FF28F509F609F50A0319F60A77
:1011FA00A101A10AF41F022903290829F309F40904
:10120A00F30A0319F40A7308740403190D290E2941
:10121A003D29A001A00A1C2901300310F30DF40D89
:10122A00FF3E031D12290130F7007708A007F41FBB
:10123A001F292029112974087602031D26297308FB
:10124A007502031C29292A2930297308F502740812
:10125A00031CF603F60201300310F40CF30CFF3EF4
:10126A00031D31290130A002031D3C293D292029F3
:10127A0021080319412942294729F509F609F50ADE
:10128A000319F60A7608F4007508F30008007F29A6
:10129A003030AA000030AB00A6293130AA00003055
:1012AA00AB00A6293230AA000030AB00A6293330A1
:1012BA00AA000030AB00A6293430AA000030AB00E7
:1012CA00A6293530AA000030AB00A6293630AA007C
:1012DA000030AB00A6293730AA000030AB00A6299F
:1012EA003830AA000030AB00A6293930AA000030F5
:1012FA00AB00A629831203132B08003A0319862987
:10130A00A6292A08003A03194D29013A0319522934
:10131A00033A03195729013A03195C29073A0319B1
:10132A006129013A03196629033A03196B29013A1B
:10133A00031970290F3A03197529013A03197A29F1
:10134A00A6290800831203138C1EAC29AD29B629DD
:10135A001A08F000700883160313AC0083120313F3
:10136A009A010C1CB929BA29032A0130F000700825
:10137A0083160313A70705302702031CC529C629AC
:10138A00FC290130F0007008FA070130F0007008FB
:10139A0083120313E6070130F00070088316031363
:1013AA00A907023083120313860602306602031C61
:1013BA00DF29E029E329E401E40AE6010A307A0296
:1013CA00031CE829E929EC29E301E30AFA010130BF
:1013DA00F000700883160313A80703302902031CC0
:1013EA00F729F829FB29A801A80AA901A7013B3076
:1013FA00831203138F00E0308E000C1072088A00EB
:10140A00710E8300FE0E7E0E090028300A168A111C
:10141A00E8230A128A15831203136E08831603132C
:10142A00AD00AE012D0883120313A4008316031323
:10143A002E0883120313A5000A168A11FF230A1223
:10144A008A15831203132508AB002408AA000A127E
:10145A008A154C210A128A15831203132A080A16BE
:10146A008A11E8230A128A15831203136E08831657
:10147A000313AD00AE012D0883120313A4008316D3
:10148A0003132E0883120313A5000A168A11E624F1
:10149A000A128A15831203132508AB002408AA002E
:1014AA000A128A154C210A128A15831203132A0872
:1014BA000A168A11E8230A128A15831203136E0880
:1014CA0083160313AD00AE012D0883120313A20085
:1014DA00831603132E0883120313A3000A168A1114
:1014EA0013250A128A15831203132308AB00220854
:1014FA00AA000A128A154C210A128A1583120313AA
:10150A002A080A168A11E8230A128A152C300A16A2
:10151A008A11E8230A128A15831203136D088316A7
:10152A000313AD00AE012D0883120313A400831622
:10153A0003132E0883120313A5000A168A11FF2328
:10154A000A128A15831203132508AB002408AA007D
:10155A000A128A154C210A128A15831203132A08C1
:10156A000A168A11E8230A128A15831203136D08D0
:10157A0083160313AD00AE012D0883120313A400D2
:10158A00831603132E0883120313A5000A168A1161
:10159A00E6240A128A15831203132508AB002408CD
:1015AA00AA000A128A154C210A128A1583120313F9
:1015BA002A080A168A11E8230A128A1583120313C3
:1015CA006D0883160313AD00AE012D0883120313B1
:1015DA00A200831603132E0883120313A3000A160C
:1015EA008A1113250A128A15831203132308AB00E2
:1015FA002208AA000A128A154C210A128A15831295
:10160A0003132A080A168A11E8230A128A152C30AB
:10161A000A168A11E8230A128A15831203136C0820
:10162A0083160313AD00AE012D0883120313A40021
:10163A00831603132E0883120313A5000A168A11B0
:10164A00FF230A128A15831203132508AB00240804
:10165A00AA000A128A154C210A128A158312031348
:10166A002A080A168A11E8230A128A158312031312
:10167A006C0883160313AD00AE012D088312031301
:10168A00A400831603132E0883120313A5000A1657
:10169A008A11E6240A128A15831203132508AB005D
:1016AA002408AA000A128A154C210A128A158312E2
:1016BA0003132A080A168A11E8230A128A158312C2
:1016CA0003136C0883160313AD00AE012D088312B1
:1016DA000313A200831603132E0883120313A30015
:1016EA000A168A1113250A128A158312031323086C
:1016FA00AB002208AA000A128A154C210A128A157E
:10170A00831203132A080A168A11E8230A128A1571
:10171A002C300A168A11E8230A128A158312031337
:10172A006B0883160313AD00AE012D088312031351
:10173A00A400831603132E0883120313A5000A16A6
:10174A008A11FF230A128A15831203132508AB0094
:10175A002408AA000A128A154C210A128A15831231
:10176A0003132A080A168A11E8230A128A15831211
:10177A0003136B0883160313AD00AE012D08831201
:10178A000313A400831603132E0883120313A50060
:10179A000A168A11E6240A128A15831203132508E7
:1017AA00AB002408AA000A128A154C210A128A15CB
:1017BA00831203132A080A168A11E8230A128A15C1
:1017CA00831203136B0883160313AD00AE012D08B1
:1017DA0083120313A200831603132E088312031322
:1017EA00A3000A168A1113250A128A1583120313F3
:1017FA002308AB002208AA000A128A154C210A12F1
:10180A008A15831203132A080A168A11E8230A1270
:10181A008A1529300A168A11E8230A128A151930FC
:10182A000A168A114D240A128A1583120313E30138
:10183A001C306E02031C222C232C292C1C306D0216
:10184A000318282C292C632C0A168A11CC230A1275
:10185A008A156030F3000030F4000A168A11DE237C
:10186A000A128A150130F3000030F4000A168A11B0
:10187A00DE230A128A150A168A11D5230A128A1534
:10188A00033083160313AF000830AE007630AD0084
:10189A00AD0B4D2CAE0B4D2CAF0B4D2C0000313047
:1018AA0083160313AD002D08F9003130AD002D0861
:1018BA00F8003130AD002D08AB00682C1D306E02E7
:1018CA00031C682C6B2C0A128A1148281D306D02E1
:1018DA00031C702C712C682C0A168A11CC230A124C
:1018EA008A156030F3000030F4000A168A11DE23EC
:1018FA000A128A150230F3000030F4000A168A111F
:10190A00DE230A128A150A168A11D5230A128A15A3
:10191A00303083160313AD002D08F9003030AD00C6
:10192A002D08F8003030AD002D08AB00682C0A12E3
:10193A008A110C28831203132D088039B200320849
:10194A00B7002D08B2003207B3003308BD00AC1F40
:10195A00AF2CB02CB12C3D143D080319B52CB62C74
:10196A00C52C3D0A031DBA2CBB2CC32C0030AD007C
:10197A000030AC000030AB000030AA00AC17CD2C10
:10198A000030AD000030AC000030AB000030AA00DF
:10199A0031088039B2003208B7063108B20032077E
:1019AA00B3003308BC00B01FDB2CDC2CDD2C3C144C
:1019BA003C080319E12CE22CF12C3C0A031DE62C0D
:1019CA00E72CEF2C0030B1000030B0000030AF003F
:1019DA000030AE00B017F92C0030B1000030B00072
:1019EA000030AF000030AE003C080319FD2CFE2C7D
:1019FA00032D3D08031D022D032D0C2D0030AD00D3
:101A0A000030AC000030AB000030AA00FF2F2A08DB
:101A1A00B2003208F30030080A168A11BD240A12ED
:101A2A008A15740883120313C3007308C20042089C
:101A3A00B200B301B401B5013508BB003408BA00DD
:101A4A003308B9003208B8004308B200B301B40140
:101A5A00B5013508C1003408C0003308BF00320898
:101A6A00BE002B08B2003208F3002F080A168A11AA
:101A7A00BD240A128A15740883120313C30073085B
:101A8A00C2004208B200B301B401B5013208B80776
:101A9A00330803110318013E0319542DB9073408FA
:101AAA0003110318013E03195B2DBA073508031108
:101ABA000318013E0319622DBB074308B200B301A4
:101ACA00B401B5013208BE07330803110318013EF9
:101ADA000319702DBF07340803110318013E0319B7
:101AEA00772DC007350803110318013E03197E2D0F
:101AFA00C1072C08B2003208F3002E080A168A1110
:101B0A00BD240A128A15740883120313C3007308CA
:101B1A00C2004208B200B301B401B5013208B807E5
:101B2A00330803110318013E03199C2DB907340821
:101B3A0003110318013E0319A32DBA07350803112F
:101B4A000318013E0319AA2DBB074308B200B301CB
:101B5A00B401B5013208BE07330803110318013E68
:101B6A000319B82DBF07340803110318013E0319DE
:101B7A00BF2DC007350803110318013E0319C62DEE
:101B8A00C1070830B2000310B80DB90DBA0DBB0D6C
:101B9A00B20BC82D2B08B2003208F3002E080A1621
:101BAA008A11BD240A128A15740883120313C3000A
:101BBA007308C2004208B2004308B300B401B50179
:101BCA003208B807330803110318013E0319EE2D32
:101BDA00B907340803110318013E0319F52DBA0792
:101BEA00350803110318013E0319FC2DBB072A0807
:101BFA00B2003208F3002F080A168A11BD240A120D
:101C0A008A15740883120313C3007308C2004208BA
:101C1A00B2004308B300B401B5013208B80733086B
:101C2A0003110318013E03191B2EB90734080311C7
:101C3A000318013E0319222EBA07350803110318A7
:101C4A00013E0319292EBB070830B2000310B80D54
:101C5A00B90DBA0DBB0DB20B2B2E2A08B2003208F1
:101C6A00F3002E080A168A11BD240A128A1574086E
:101C7A0083120313C3007308C2004208B200430868
:101C8A00B300B401B5013208B807330803110318C9
:101C9A00013E0319512EB907340803110318013EF6
:101CAA000319582EBA07350803110318013E031900
:101CBA005F2EBB072B08B2003208F30030080A1661
:101CCA008A11BD240A128A15740883120313C300E9
:101CDA007308C2004208B2004308B300B401B50158
:101CEA003208BE07330803110318013E03197E2E7A
:101CFA00BF07340803110318013E0319852EC007D4
:101D0A00350803110318013E03198C2EC1072C084C
:101D1A00B2003208F3002F080A168A11BD240A12EB
:101D2A008A15740883120313C3007308C200420899
:101D3A00B2004308B300B401B5013208BE07330844
:101D4A0003110318013E0319AB2EBF073408031110
:101D5A000318013E0319B22EC007350803110318F0
:101D6A00013E0319B92EC1072C08B2003208F3004C
:101D7A0030080A168A11BD240A128A1574088312B9
:101D8A000313C3007308C2004208B2004308B30039
:101D9A00B401B50108300310B20DB30DB40DB50D81
:101DAA00FF3E031DD02E3208BE0733080311031865
:101DBA00013E0319E12EBF07340803110318013E3F
:101DCA000319E82EC007350803110318013E031949
:101DDA00EF2EC1073808B2003908B3003A08B40038
:101DEA003B08B50018300310B50CB40CB30CB20C98
:101DFA00FF3E031DF82E3208BE07330803110318ED
:101E0A00013E0319092FBF07340803110318013EC5
:101E1A000319102FC007350803110318013E0319CF
:101E2A00172FC1070830B2000310B80DB90DBA0D4B
:101E3A00BB0DB20B192F3D083C07B200B301B30D1D
:101E4A003208823EC20033080318013EFF3EC30037
:101E5A004B2F0130B2000310BE0DBF0DC00DC10DD6
:101E6A00B20B302FBB1F3A2F3B2F3C2F3E140130B1
:101E7A00B2000310B80DB90DBA0DBB0DB20B3E2F4F
:101E8A00FF30C2070318C30AFF30C307C01F4E2F13
:101E9A004F2F2E2FBC01BB1F532F542F702FFF30F3
:101EAA003805B200FF303905B300FF303A05B400F7
:101EBA007F303B05B5003508340433043204031976
:101ECA00672F682F6B2FBC01BC0A702F3E1C6E2F28
:101EDA006F2F702F682F3C080319742F752FA62FA8
:101EEA000130BE07003003180130BF070030031865
:101EFA000130C007003003180130C107411C862F8A
:101F0A00872FA62F3E08B2003F08B3004008B4004E
:101F1A004108B5000130B600350DB50CB40CB30C50
:101F2A00B20CB60B912F3508C1003408C000330833
:101F3A00BF003208BE000130C2070318C30A0030CE
:101F4A00C3074308803AFF0080307F02031DAF2F8A
:101F5A00FF304202031CB22FB32FBE2F7F308312F1
:101F6A000313C1008030C0000030BF000030BE0043
:101F7A00F32F831203134308803AFF0080307F0255
:101F8A00031DC92F013042020318CC2FCD2FD92FA0
:101F9A00003083120313C1000030C0000030BF00BC
:101FAA000030BE00B701F32F831203134208B200B8
:101FBA003208BD00FF30BE05FF30BF057F30C005C7
:101FCA000030C1053D1CEA2FEB2FEC2FC0173D084E
:101FDA00B2000310320CB3003308C1003708B20054
:101FEA003208C1044108AD004008AC003F08AB000C
:101FFA003E08AA00080010308A000408840A8207F2
:10200A0000342034543431342034203420345434CD
:10201A0032342034203420344C34313400342034E7
:10202A004C3455345A3432342034563452345334BE
:10203A0000340A340D340034253420340034433457
:08204A00203400342534003479
:1027880064008001840A0406031900340406C52B7A
:102798000A168A11F2230A168A11831603131114D2
:1027A80008000A168A11F2230A168A1183160313DF
:1027B800111508000A168A11F2230A168A117308DD
:1027C8008312031393000800F300831203130C1EF3
:1027D800EE2BEF2BE92B73089900080083160313DF
:1027E8001419F72BF82BF22B11081F39031DFD2B99
:1027F800FE2BF22B08006430F3000030F400831243
:1028080003132508F6002408F5000A128A11ED269C
:102818000A168A11740883120313A7007308A60006
:102828002708A5002608A4000800F6008312031351
:10283800091076080A128A11BE270A168A1183120D
:10284800031389140B30F5006230F400F40B2A2CC2
:10285800F50B2A2C00008312031389100800F500D9
:102868007508F4007408F600831203130914760837
:102878000A128A11BE270A168A11831203138914B1
:102888001A30F400F40B462C00008312031389104D
:102898000800F400612C831203130C1E542C552CD1
:1028A8004F2C740884000A168A1100200A168A110F
:1028B80099000130F3007308F407740884000A16BD
:1028C8008A1100200A168A11003A031D6C2C6D2CFF
:1028D8004F2C080083120313A1002103031D752C3C
:1028E800762C822C77087F3EA0002008A2002208C0
:1028F8000A168A1119240A168A11932C0230210605
:10290800031D872C882C932C7708BF3EA000200835
:10291800A20022080A168A1119240A168A11080028
:1029280083120313A200A001A101AF2C20082207E3
:1029380084000A168A1100200A168A110A168A11BA
:1029480033240A168A11013083120313A0070318CF
:10295800A10A0030A1072008220784000A168A115C
:1029680000200A168A11003A031DBB2CBC2C9A2C95
:10297800080083120313A400A001A1017308F50045
:10298800F6017508A2007608A300241CCC2CCD2CD7
:10299800D32C2208A0070318A10A2308A107013095
:1029A8000310A20DA30DFF3E031DD42C0310A40C8D
:1029B8002408031DE02CE12CC92C2108F400200870
:1029C800F30008006430F3000030F40083120313AE
:1029D8002508F6002408F5000A128A15F1200A16BF
:1029E8008A11740883120313A7007308A6000A301B
:1029F800F3000030F4002708F6002608F5000A1254
:102A08008A11ED260A168A11740883120313A90085
:102A18007308A8002908A5002808A4000800643045
:102A2800F3000030F400831203132308F600220891
:102A3800F5000A128A15F1200A168A117408831201
:102A48000313A5007308A4000A30F3000030F40053
:102A58002508F6002408F5000A128A15F1200A163E
:102A68008A11740883120313A7007308A6002708A5
:102A7800A3002608A20008000A168A11F2230A16E3
:102A88008A118316031391150A168A11F2230A165E
:102A98008A11831203131308F500F6017508A000C4
:102AA8007608A1000A168A11F2230A168A117303FE
:102AB8007404031D602D612D652D83160313911277
:102AC8006E2D73087404031D6A2D6B2D6E2D8316ED
:102AD8000313911683160313111683120313210887
:102AE800F4002008F3000800831203134708803914
:102AF800CC004C08D4004708CC004C07CD004D084A
:102B0800D600C61F882D892D8A2D561456080319FC
:102B18008E2D8F2D9F2D560A031D932D942D9C2DA0
:102B28000030C7000030C6000030C5000030C400C7
:102B3800C617C701A72D0030C7000030C6000030F7
:102B4800C5000030C4004B088039CC004C08D500C3
:102B5800550854060319B12DB22DB32D54174B083F
:102B6800CC004C07CD004D08D500CA1FBC2DBD2D8B
:102B7800BE2D551455080319C22DC32DD32D550A42
:102B8800031DC72DC82DD02D0030CB000030CA0042
:102B98000030C9000030C800CA17CB01DB2D003057
:102BA800CB000030CA000030C9000030C800560809
:102BB80055020318E02DE12D252E541FE42DE52D97
:102BC800E92D8030CC004C08D4065608CC004C08BF
:102BD800D7005508CC004C08D6005708CC004C0844
:102BE800D5004408CC004C08D7004808CC004C0855
:102BF800C4005708CC004C08C8004508CC004C0855
:102C0800D7004908CC004C08C5005708CC004C0830
:102C1800C9004608CC004C08D7004A08CC004C082C
:102C2800C6005708CC004C08CA004708CC004C081E
:102C3800D7004B08CC004C08C7005708CC004C08FC
:102C4800CB00D7015508CC00CD014D08CF00560860
:102C58004C02CE00031CCF034F08803AFF0080309F
:102C68007F02031D392E1A304E02031C3C2E3D2EC6
:102C78007A2E831203134708460445044404031DAF
:102C8800462E482E0130492E0030CC004C08D70083
:102C98000030C7000030C6000030C5000030C40056
:102CA8005508CC004C08D600822E571C5C2E5D2E91
:102CB800662E5708CC0003104C0C0138CD004D0887
:102CC800D700682E0310D70C441C6B2E6C2E6D2E6B
:102CD800D7170130CC00470DC70CC60CC50CC40C67
:102CE800CC0B6F2E0130CC004C08D607831203138F
:102CF80055085602031C812E822E592E541B852EF0
:102D0800862ED12E5608031D8A2E8B2E942E003027
:102D1800C7000030C6000030C5000030C400FF2FD7
:102D28004808C407490803110318013E03199D2EDA
:102D3800C5074A0803110318013E0319A42EC60744
:102D48004B0803110318013E0319AB2EC707471C94
:102D5800AE2EAF2E852F571CB22EB32EBC2E570881
:102D6800CC0003104C0C0138CD004D08D700BE2E06
:102D78000310D70C441CC12EC22EC32ED717013006
:102D8800CC00470DC70CC60CC50CC40CCC0BC52E0B
:102D98000130CC004C08D607852F4708803AFF0041
:102DA8004B08803A7F02031DE32E4A084602031DA2
:102DB800E32E49084502031DE32E48084402031880
:102DC800E62EE72E3F2FFF30CC00FF30CD00FF303E
:102DD800CE00FF30CF004808D0004908D1004A088B
:102DE800D2004B08D3004408D0024508031C450F05
:102DF800FE2EFF2ED1024608031C460F042F052F76
:102E0800D2024708031C470F0A2F0B2FD302500882
:102E1800CC0751080318510F122F132FCD07520852
:102E28000318520F182F192FCE0753080318530AE7
:102E3800CF074F08C7004E08C6004D08C5004C080C
:102E4800C4008030CC004C08D406D709D70A5708EC
:102E5800031D2F2F302F4D2F0130C40700300318CA
:102E68000130C507003003180130C60700300318C9
:102E78000130C7074D2F4808C4024908031C490FF1
:102E8800C5024A08031C4A0FC6024B08031C4B0F15
:102E9800C7024708460445044404031D542F552F10
:102EA800812F5708031D592F5A2F812F0030C70033
:102EB8000030C6000030C5000030C400FF2F0130CC
:102EC800CC000310C40DC50DC60DC70DCC0B652F66
:102ED800D71F6F2F702F712F4414571C742F752F05
:102EE800782F0314D70D7A2F0310D70D560803191E
:102EF8007E2F7F2F812F0130D602C61F842F852F6A
:102F0800632FD501D71F892F8A2F982F57087F390C
:102F180003198F2F902F932FD501D50A982F441C72
:102F2800962F972F982F902F550803199C2F9D2F78
:102F3800D12F0130C407003003180130C507003015
:102F480003180130C607003003180130C707471CB3
:102F5800AE2FAF2FD12F4408CC004508CD0046082E
:102F6800CE004708CF000130D0004F0DCF0CCE0C5B
:102F7800CD0CCC0CD00BB92F4F08C7004E08C6009B
:102F88004D08C5004C08C400560A0319CC2FCD2F94
:102F9800D12F0130CC004C08D607560A0319D52F7B
:102FA800D62FDB2F5608031DDA2FDB2FE92F003031
:102FB800C7000030C6000030C5000030C400560805
:102FC800031DE72FE82FE92FD401561CEC2FED2F16
:102FD800EF2FC617F32F7F30CC004C08C6055608D4
:102FE800CC0003104C0CCD004D08C700D41FFD2F9A
:082FF800FE2FFF2FC717080090
:04400E00D420FF3F7C
:00000001FF
