:060000000A128A110E280D
:10000800FE00030EF7000408F8000A08F9000A12B7
:100018008A1100290A128A111128F001F101F2014E
:10002800F301F40183120313B501B601B701B80156
:10003800B901BA01BB0183010A128A1123280A12E5
:100048008A11F6220A128A1183120313BC01BC0A10
:10005800720803193028312893287408B100B201B6
:100068003108A9003208AA000A128A1197230A1235
:100078008A11831203132A08B0002908AF000A1254
:100088008A11E7210A128A11831203132F080A1210
:100098008A11C8230A128A11740883120313B10043
:1000A800B2013108A9003208AA000A128A116A238B
:1000B8000A128A11831203132A08B0002908AF0014
:1000C8000A128A11E7210A128A11831203132F08D0
:1000D8000A128A11C8230A128A1174088312031398
:1000E800B100B2013108A7003208A8000A128A112B
:1000F8003D230A128A11831203132808B000270827
:10010800AF000A128A11E7210A128A118312031317
:100118002F080A128A11C8230A128A11F2018312BF
:1001280003133508031999289A28FA28F10164302D
:10013800B1003108A2003808B200B3013208A000AB
:100148003308A1000A128A119D220A128A11831209
:10015800031320080A128A11B1230A128A11831282
:100168000313B4003408F00070087107B1003108B7
:10017800F1000A30B1003108A2003708B200B3011B
:100188003208A0003308A1000A128A119D220A121F
:100198008A118312031320080A128A11B1230A1242
:1001A8008A1183120313B4003408F0007008710731
:1001B800B1003108F1003608B100B2013108A000E1
:1001C8003208A1000A128A119D220A128A1183128A
:1001D80003132008B3003308F00070087107B1005A
:1001E8003108F10071088800B5018613740885008C
:1001F8002C280A128A110E28831203138C1E052933
:1002080006293A291A08F5007508F3009A012729E2
:100218000230F5007508BC007308F5007508B800D1
:100228003A290330F5007508BC007308F500750815
:10023800B7003A29BC01BC0A7308F5007508B60076
:10024800B501B50A3A293C08F500F6017608003AE6
:1002580003192F293A297508013A03190C29033A79
:1002680003191529013A03191E293A290C1C3D299D
:100278003E2949297208031D422943294529F201CB
:10028800F20A86178F018E010C100B1C4C294D2980
:1002980075290618502951295429B901B90A622922
:1002A800061C5729582962293903031D5C295D2931
:1002B80062290130F5007508F407B9018618652927
:1002C80066296829BA01BA0A861C6B296C2974291F
:1002D8003A03031D7029712974290130F402BA0107
:1002E8000B1079088A0078088400770E8300FE0EC8
:1002F8007E0E090083120313A601A11F84298529F4
:100308008C29A009A109A00A0319A10AA601A60A15
:10031800A31F8F2990299929A209A309A20A0319C1
:10032800A30A0130A4002408A606A701A8012008F2
:1003380021040319A029A129D829A501A50AAF29B3
:1003480001300310A00DA10DFF3E031DA5290130AA
:10035800A4002408A507A11FB229B329A4290130A4
:100368000310A70DA80DFF3E031DB4292108230281
:10037800031DC02920082202031CC329C429CB2934
:100388002008A2022108031CA303A302271401309A
:100398000310A10CA00CFF3E031DCC290130A502BF
:1003A800031DD729D829B32926080319DC29DD29F3
:1003B800E229A709A809A70A0319A80A2808A10079
:1003C8002708A00008001A2A3030AF000030B0001B
:1003D800412A3130AF000030B000412A3230AF003E
:1003E8000030B000412A3330AF000030B000412A5D
:1003F8003430AF000030B000412A3530AF00003053
:10040800B000412A3630AF000030B000412A373002
:10041800AF000030B000412A3830AF000030B000E3
:10042800412A3930AF000030B000412A831203134B
:100438003008003A0319212A412A2F08003A0319E3
:10044800E829013A0319ED29033A0319F229013A77
:100458000319F729073A0319FC29013A0319012A54
:10046800033A0319062A013A03190B2A0F3A03190A
:10047800102A013A0319152A412A08008312031386
:10048800A601A31F482A492A502AA209A309A20A99
:100498000319A30AA601A60AA11F532A542A592AF6
:1004A800A009A109A00A0319A10A20082104031917
:1004B8005E2A5F2A8E2AA501A50A6D2A013003103B
:1004C800A00DA10DFF3E031D632A0130A4002408DE
:1004D800A507A11F702A712A622A21082302031D79
:1004E800772A20082202031C7A2A7B2A812A2008DC
:1004F800A2022108031CA303A30201300310A10CCC
:10050800A00CFF3E031D822A0130A502031D8D2A7F
:100518008E2A712A26080319922A932A982AA20950
:10052800A309A20A0319A30A2308A1002208A0000C
:100538000800CE2AA001A101F52A0130A000003050
:10054800A100F52A0230A0000030A100F52A0330EE
:10055800A0000030A100F52A0430A0000030A1005E
:10056800F52A0530A0000030A100F52A0630A000C9
:100578000030A100F52A0730A0000030A100F52ABC
:100588000830A0000030A100F52A0930A000003092
:10059800A100F52A831203132108003A0319D52A6A
:1005A800F52A2008303A03199E2A013A0319A12A8C
:1005B800033A0319A62A013A0319AB2A073A031981
:1005C800B02A013A0319B52A033A0319BA2A013A9B
:1005D8000319BF2A0F3A0319C42A013A0319C92A71
:1005E800F52A0800831603130F140F178F120F1222
:1005F80083120313850103308600880183160317CD
:100608008801890183160313850103308600880158
:10061800811303309600033095008B170B170B10CE
:100628008B159A0119309900181583160317871529
:1006380083160313181283120313981783160313D0
:100648009816831203131816831603138C16831235
:100658000313901610169015101590101014831689
:1006680003130C14F230831203138F00FA308E0038
:100678000800643083120313A0000030A10028088A
:10068800A3002708A2000A128A1142220A128A111C
:10069800831203132108AA002008A9000A30A00029
:1006A8000030A1002A08A3002908A2000A128A1112
:1006B80042220A128A11831203132108AC0020086F
:1006C800AB002C08A8002B08A70008006430831290
:1006D8000313A0000030A1002A08A3002908A200E3
:1006E8000A128A1142220A128A118312031321085C
:1006F800AC002008AB000A30A0000030A1002C0894
:10070800A3002B08A2000A128A117E210A128A115C
:10071800831203132108AE002008AD002E08AA009A
:100728002D08A9000800643083120313A0000030CC
:10073800A1002A08A3002908A2000A128A117E2112
:100748000A128A11831203132108AC002008AB0097
:100758002C08AA002B08A900080083120313A5007F
:10076800A401251CB82BB92BBD2B2208A3002308F4
:10077800A4070310A20D0310A50C2508031DC52B03
:10078800C62BB52B2408080083120313A0000C1EE7
:0C079800CE2BCF2BCB2B200899000800A3
:04400E00C430FF3F7C
:00000001FF
