:020000040000FA
:060000000A128A110E280D
:10000800FE00030EF9000408FA000A08FB000A12B1
:100018008A11EF2D0A128A1111288313D430FD009A
:100028000730FE00B930FF00A03084000A128A11A0
:10003800F1270A128A11D801D901DA01DB01DC01A2
:10004800DD01DE01F001F101F201F301F401F50136
:1000580083010A128A11912B831203133108803904
:10006800B6003608BB003108B6003607B7003708B7
:10007800C100B01F402841284228411441080319F3
:10008800462847285628410A031D4B284C2854283F
:100098000030B1000030B0000030AF000030AE00DA
:1000A800B0175E280030B1000030B0000030AF005B
:1000B8000030AE0035088039B6003608BB06350872
:1000C800B6003607B7003708BC00B41F6C286D2887
:1000D8006E283C143C0803197228732882283C0AAD
:1000E800031D7728782880280030B5000030B40038
:1000F8000030B3000030B200B4178A280030B500D1
:100108000030B4000030B3000030B2003C080319DE
:100118008E288F2894284108031D932894289D2809
:100128000030B1000030B0000030AF000030AE0049
:10013800902B2E08B6003608A00034080A128A153B
:100148007C260A128A11831203132108C70020088B
:10015800C6004608B600B701B801B9013908C000A1
:100168003808BF003708BE003608BD004708B6008B
:10017800B701B801B9013908C5003808C400370803
:10018800C3003608C2002F08B6003608A00033089E
:100198000A128A157C260A128A118312031321086F
:1001A800C7002008C6004608B600B701B801B90163
:1001B8003608BD07370803110318013E0319E5285F
:1001C800BE07380803110318013E0319EC28BF07BE
:1001D800390803110318013E0319F328C00747081B
:1001E800B600B701B801B9013608C20737080311CC
:1001F8000318013E03190129C3073808031103181E
:10020800013E03190829C407390803110318013EE0
:1002180003190F29C5073008B6003608A0003208B0
:100228000A128A157C260A128A11831203132108DE
:10023800C7002008C6004608B600B701B801B901D2
:100248003608BD07370803110318013E03192D2985
:10025800BE07380803110318013E03193429BF07E4
:10026800390803110318013E03193B29C007470841
:10027800B600B701B801B9013608C207370803113B
:100288000318013E03194929C30738080311031845
:10029800013E03195029C407390803110318013E08
:1002A80003195729C5070830B6000310BD0DBE0D48
:1002B800BF0DC00DB60B59292F08B6003608A0008F
:1002C80032080A128A157C260A128A11831203132D
:1002D8002108C7002008C6004608B6004708B7002E
:1002E800B801B9013608BD07370803110318013EE4
:1002F80003197F29BE07380803110318013E0319A3
:100308008629BF07390803110318013E03198D29EF
:10031800C0072E08B6003608A00033080A128A154E
:100328007C260A128A11831203132108C7002008A9
:10033800C6004608B6004708B700B801B901360834
:10034800BD07370803110318013E0319AC29BE077E
:10035800380803110318013E0319B329BF073908E8
:1003680003110318013E0319BA29C0070830B60063
:100378000310BD0DBE0DBF0DC00DB60BBC292E0858
:10038800B6003608A00032080A128A157C260A121E
:100398008A11831203132108C7002008C6004608E3
:1003A800B6004708B700B801B9013608BD073708D5
:1003B80003110318013E0319E229BE073808031187
:1003C8000318013E0319E929BF0739080311031867
:1003D800013E0319F029C0072F08B6003608A0000F
:1003E80034080A128A157C260A128A11831203130A
:1003F8002108C7002008C6004608B6004708B7000D
:10040800B801B9013608C207370803110318013EBD
:1004180003190F2AC307380803110318013E0319EB
:10042800162AC407390803110318013E03191D2AA7
:10043800C5073008B6003608A00033080A128A1526
:100448007C260A128A11831203132108C700200888
:10045800C6004608B6004708B700B801B901360813
:10046800C207370803110318013E03193C2AC307C2
:10047800380803110318013E0319432AC407390831
:1004880003110318013E03194A2AC5073008B600AC
:100498003608A00034080A128A157C260A128A1126
:1004A800831203132108C7002008C6004608B600B7
:1004B8004708B700B801B90108300310B60DB70DE9
:1004C800B80DB90DFF3E031D612A3608C20737086B
:1004D80003110318013E0319722AC30738080311D0
:1004E8000318013E0319792AC407390803110318B0
:1004F800013E0319802AC5073D08B6003E08B7002B
:100508003F08B8004008B90018300310B90CB80CFF
:10051800B70CB60CFF3E031D892A3608C2073708F8
:1005280003110318013E03199A2AC3073808031157
:100538000318013E0319A12AC40739080311031837
:10054800013E0319A82AC5070830B6000310BD0DDF
:10055800BE0DBF0DC00DB60BAA2A41083C07B60058
:10056800B701B70D3608823EC60037080318013EAA
:10057800FF3EC700DC2A0130B6000310C20DC30DD0
:10058800C40DC50DB60BC12AC01FCB2ACC2ACD2A53
:1005980042140130B6000310BD0DBE0DBF0DC00DD5
:1005A800B60BCF2AFF30C6070318C70AFF30C707A4
:1005B800C41FDF2AE02ABF2ABC01C01FE42AE52A9B
:1005C800012BFF303D05B600FF303E05B700FF3078
:1005D8003F05B8007F304005B900390838043704B2
:1005E80036040319F82AF92AFC2ABC01BC0A012B93
:1005F800421CFF2A002B012BF92A3C080319052B62
:10060800062B372B0130C207003003180130C3070F
:10061800003003180130C407003003180130C50743
:10062800451C172B182B372B4208B6004308B70078
:100638004408B8004508B9000130BA00390DB90CB2
:10064800B80CB70CB60CBA0B222B3908C500380801
:10065800C4003708C3003608C2000130C6070318B3
:10066800C70A0030C7074708803AFF0080307F027A
:10067800031D402BFF304602031C432B442B4F2BFA
:100688007F3083120313C5008030C4000030C300DC
:100698000030C200842B831203134708803AFF00FE
:1006A80080307F02031D5A2B0130460203185D2B50
:1006B8005E2B6A2B003083120313C5000030C40080
:1006C8000030C3000030C200BB01842B8312031327
:1006D8004608B6003608C100FF30C205FF30C30522
:1006E8007F30C4050030C505411C7B2B7C2B7D2B3E
:1006F800C4174108B6000310360CB7003708C50008
:100708003B08B6003608C5044508B1004408B000E7
:100718004308AF004208AE0008000A128A15FF26F7
:100728000A128A11F301F30A83120313DB01DB0AAD
:100738000711F001643083120313D3005308A20099
:100748005A08D400D5015408A0005508A1000A127F
:100758008A154C270A128A118312031320080A12D9
:100768008A1526260A128A1183120313D600560800
:10077800F10071087007D3005308F0000A30D30065
:100788005308A2005908D400D5015408A000550800
:10079800A1000A128A154C270A128A118312031320
:1007A80020080A128A1526260A128A1183120313B0
:1007B800D6005608F10071087007D3005308F000FE
:1007C8005808D300D4015308A0005408A1000A1205
:1007D8008A154C270A128A11831203132008D500A0
:1007E8005508F10071087007D3005308F00070082D
:1007F80086005E08D300D401D501D6015608A300AF
:100808005508A2005408A1005308A00001300A129C
:100818008A1133250A128A11831203132308B5009B
:100828002208B4002108B3002008B2003E30B1000D
:100838004830B000B430AF003930AE000A128A1127
:1008480030200A128A11831203133108CB003008B2
:10085800CA002F08C9002E08C8000A128A11792672
:100868000A128A11831203134808D7005708F200A6
:100878005D08D300D401D501D6015608A300550858
:10088800A2005408A1005308A00001300A128A11DE
:1008980033250A128A11831203132308B50022088C
:1008A800B4002108B3002008B2003E30B10048303F
:1008B800B000B430AF003930AE000A128A113020CF
:1008C8000A128A11831203133108CB003008CA00B8
:1008D8002F08C9002E08C8000A128A1179260A12A0
:1008E8008A11831203134808D7005708DC007408DC
:1008F80003197F2C802C9D2B5B300A128A151C262D
:100908000A128A11720883120313D300D401530800
:10091800A9005408AA000A128A15A5260A128A11E3
:10092800831203132A08B0002908AF000A128A119B
:100938005E270A128A11831203132F080A128A15D6
:100948001C260A128A112E300A128A151C260A122F
:100958008A11720883120313D300D4015308A70025
:100968005408A8000A128A15D2260A128A1183127C
:1009780003132808B0002708AF000A128A115E275F
:100988000A128A11831203132F080A128A151C26C9
:100998000A128A112C300A128A151C260A128A1188
:1009A800831203135C08D300D4015308A900540828
:1009B800AA000A128A15A5260A128A11831203139D
:1009C8002A08B0002908AF000A128A115E270A1205
:1009D8008A11831203132F080A128A151C260A1279
:1009E8008A112E300A128A151C260A128A118312BD
:1009F80003135C08D300D4015308A7005408A800C7
:100A08000A128A15D2260A128A1183120313280899
:100A1800B0002708AF000A128A115E270A128A114D
:100A2800831203132F080A128A151C260A128A1128
:100A38005D300A128A151C260A128A1103300A121E
:100A48008A155B260A128A1101300A128A155B265A
:100A58000A128A11F4019D2B0A128A110E28831298
:100A68000313A800280803193A2D3B2D4F2DA31F67
:100A78003E2D3F2D4F2D2009AA002109AB00220948
:100A8800AC002309AD00AA0A0319AB0A0319AC0A82
:100A98000319AD0A572D2308AD002208AC00210820
:100AA800AB002008AA002308220421042004031D07
:100AB8005E2D5F2D682D0030A3000030A2000030AD
:100AC800A1000030A000EE2D9630A4002408A90053
:100AD8007A2D0130A4002408A90701300310AD0CB9
:100AE800AC0CAB0CAA0CFF3E031D722DFE302D057D
:100AF800031D7F2D802D6D2D9C2D0130A400240811
:100B0800A9070130AA07003003180130AB070030ED
:100B180003180130AC07003003180130AD0701306D
:100B28000310AD0CAC0CAB0CAA0CFF3E031D942DAE
:100B3800FF302D05031DA12DA22D812DAE2D0130D5
:100B4800A9020130A4000310AA0DAB0DAC0DAD0D28
:100B5800A40BA72DAC1BB12DB22DB82D0230290244
:100B68000318B72DB82DA32D2918BB2DBC2DC42DC6
:100B7800FF30AA05FF30AB057F30AC05FF30AD056F
:100B88000310A90C2908A400A501A601A701183083
:100B98000310A40DA50DA60DA70DFF3E031DCC2D1A
:100BA8002408AA042508AB042608AC042708AD04C9
:100BB80028080319E02DE12DE62DA31FE42DE52DCE
:100BC800E62DAD172D08A3002C08A2002B08A100C4
:100BD8002A08A0000800831203138C1EF42DF52D9B
:100BE800272E1A08F7007708F5009A01142E02300C
:100BF800F7007708DB007508F7007708DA00272E7A
:100C08000330F7007708DB007508F7007708D9008C
:100C1800272EDB01DB0A7508F7007708D800272E96
:100C28005B08F700F8017808003A03191C2E272EF4
:100C38007708013A0319FB2D033A0319042E013AE8
:100C480003190D2E272E0C1C2A2E2B2E372E740836
:100C5800031D2F2E302E322EF401F40AE6308F00B9
:100C6800D4308E000C100B1D3A2E3B2E702E7303C1
:100C7800031D3F2E402E552E73080A128A1506268C
:100C88000A128A110A128A1513260A128A11F70003
:100C9800770883120313DE000230F7007708F300A9
:100CA8006D2E02307306031D5A2E5B2E6D2E7308AF
:100CB8000A128A1506260A128A110A128A1513269A
:100CC8000A128A11F700770883120313DD00F30173
:100CD800F30A3C3081000B117B088A007A088400F3
:100CE800790E8300FE0E7E0E090003108312031393
:100CF8004A0D4B0DCC004C08D2005208031D852E1E
:100D0800862E8F2E0030CB000030CA000030C9007C
:100D18000030C800F42E4808CC004908CD004A0825
:100D2800CE004B08CF001F300310CF0CCE0CCD0CDB
:100D3800CC0CFF3E031D982E4C08D0005008D10063
:100D4800CA17FF30C805FF30C905FF30CA05003093
:100D5800CB059630D202D21FB22EB32ECD2E52081A
:100D6800803A973E0318B92EBA2EBB2E862E013034
:100D78000310CB0CCA0CC90CC80CFF3E031DBC2EBB
:100D88000130CC004C08D207031DCB2ECC2EBB2E35
:100D9800E42E20305202031CD22ED32EDF2E862EB4
:100DA8000130CC000310C80DC90DCA0DCB0DCC0BFA
:100DB800D62E0130D2025208031DE32EE42ED42E83
:100DC80051080319E82EE92EF42EC809C909CA09E1
:100DD800CB09C80A0319C90A0319CA0A0319CB0A95
:100DE800080083120313A601A11FFB2EFC2E032F5C
:100DF800A009A109A00A0319A10AA601A60AA31F0E
:100E0800062F072F102FA209A309A20A0319A30A64
:100E18000130A4002408A606A701A801200821047F
:100E28000319172F182F4F2FA501A50A262F0130B8
:100E38000310A00DA10DFF3E031D1C2F0130A400BF
:100E48002408A507A11F292F2A2F1B2F01300310C3
:100E5800A70DA80DFF3E031D2B2F21082302031DFC
:100E6800372F20082202031C3A2F3B2F422F20083D
:100E7800A2022108031CA303A302271401300310B4
:100E8800A10CA00CFF3E031D432F0130A502031D3A
:100E98004E2F4F2F2A2F26080319532F542F592F1F
:100EA800A709A809A70A0319A80A2808A10027085A
:100EB800A0000800912F3030AF000030B000B82FEC
:100EC8003130AF000030B000B82F3230AF00003002
:100ED800B000B82F3330AF000030B000B82F343036
:100EE800AF000030B000B82F3530AF000030B00090
:100EF800B82F3630AF000030B000B82F3730AF0011
:100F08000030B000B82F3830AF000030B000B82F34
:100F18003930AF000030B000B82F83120313300807
:100F2800003A0319982FB82F2F08003A03195F2F9A
:100F3800013A0319642F033A0319692F013A031977
:100F48006E2F073A0319732F013A0319782F033AC2
:100F580003197D2F013A0319822F0F3A0319872F9E
:100F6800013A03198C2FB82F08003F340034063497
:100F780000345B3400344F340034663400346D344C
:100F880000347D340034073400347F34003467344F
:100F98000034773400347C340034583400345E3400
:100FA800003479340034713400343F34003406346A
:100FB80000345B3400344F340034663400346D340C
:100FC80000347D340034783400347F34003467349E
:100FD80000347E088A007F0882000A128A11ED27F1
:100FE8000A128A118000840A04087D060319003455
:100FF800FF0A0319FE0AF12F08308A000408840A40
:0C100800820700340A3400340D34003438
:101C0C00F60076088312031393000800831603135F
:101C1C00141C112E122E0C2E08000A128A150C26DA
:101C2C000A128A1583120313130808008312031374
:101C3C00A0000C1E222E232E1F2E20089900080017
:101C4C0083120313A500A401251C2D2E2E2E322E3B
:101C5C002208A3002308A4070310A20D0310A50C4F
:101C6C002508031D3A2E3B2E2A2E24080800831229
:101C7C000313A30083160313871283120313231D6C
:101C8C00482E492E4F2E22088316031394008715D5
:101C9C00552E2008220483160313940087118312F7
:101CAC000313230821049400080083120313A100DA
:101CBC006F2E0C1E622E632E5F2E210884000A12DA
:101CCC008A1500200A128A1599000130A0002008FC
:101CDC00A107210884000A128A1500200A128A150D
:101CEC00003A031D7A2E7B2E5F2E080083120313FD
:101CFC00A800A401A5012008A200A3012208A600A7
:101D0C002308A700281C8B2E8C2E922E2608A407A5
:101D1C000318A50A2708A50701300310A60DA70D67
:101D2C00FF3E031D932E0310A80C2808031D9F2EA5
:101D3C00A02E882E2508A1002408A00008006430DD
:101D4C0083120313A0000030A1002A08A300290865
:101D5C00A2000A128A15A5270A128A1583120313E8
:101D6C002108AC002008AB000A30A0000030A10014
:101D7C002C08A3002B08A2000A128A11F5260A12BD
:101D8C008A15831203132108AE002008AD002E081B
:101D9C00AA002D08A9000800643083120313A000C8
:101DAC000030A1002808A3002708A2000A128A15F7
:101DBC00A5270A128A15831203132108AA002008EA
:101DCC00A9000A30A0000030A1002A08A3002908AD
:101DDC00A2000A128A15A5270A128A158312031368
:101DEC002108AC002008AB002C08A8002B08A70089
:101DFC000800831603130F140F178F120F12831280
:101E0C0003138601831603178801890183160313B4
:101E1C00860107118B170B170C179A0119309900B3
:101E2C0018158316031787158316031318128312BC
:101E3C00031398178316031398168312031318169B
:101E4C00831603138C168112811101158114011054
:101E5C003C3083120313810090121016901510154C
:101E6C0090101014831603130C14E6308312031312
:101E7C008F00D4308E000715A001A101A2012030E3
:101E8C000A128A153D260A128A1508007D2FA00118
:101E9C00A101A42F0130A0000030A100A42F02301A
:101EAC00A0000030A100A42F0330A0000030A1003E
:101EBC00A42F0430A0000030A100A42F0530A000F6
:101ECC000030A100A42F0630A0000030A100A42FE8
:101EDC000730A0000030A100A42F0830A000003073
:101EEC00A100A42F0930A0000030A100A42F831260
:101EFC0003132108003A0319842FA42F2008303A29
:101F0C0003194D2F013A0319502F033A0319552F7A
:101F1C00013A03195A2F073A03195F2F013A031993
:101F2C00642F033A0319692F013A03196E2F0F3AE4
:101F3C000319732F013A0319782FA42F0800831269
:101F4C000313A601A31FAB2FAC2FB32FA209A30918
:101F5C00A20A0319A30AA601A60AA11FB62FB72F1E
:101F6C00BC2FA009A109A00A0319A10A2008210469
:101F7C000319C12FC22FF12FA501A50AD02F0130B3
:101F8C000310A00DA10DFF3E031DC62F0130A400B0
:101F9C002408A507A11FD32FD42FC52F2108230256
:101FAC00031DDA2F20082202031CDD2FDE2FE42F65
:101FBC002008A2022108031CA303A3020130031072
:101FCC00A10CA00CFF3E031DE52F0130A502031D43
:101FDC00F02FF12FD42F26080319F52FF62FFB2FF6
:101FEC00A209A309A20A0319A30A2308A100220823
:041FFC00A000080039
:04400E00C430FF3F7C
:00000001FF
