:020000040000FA
:060000000A128A110E280D
:10000800FE00030EF7000408F8000A08F9000A12B7
:100018008A112F280A128A11112883135430FD00DF
:100028000030FE009930FF00203084000A128A1147
:1000380032210A128A11D401D501D601D701D8017B
:10004800D901DA01DB01FA01FB01FC01FD018301A1
:100058000A128A114129831203138C1D342835286A
:100068005A280A128A1150210A128A11F5007508B5
:10007800FC007C03031D4128422849287A080A12FB
:100088008A1160210A128A11572802307C06031D42
:100098004E284F285728831203135A080A128A1128
:1000A80060210A128A11831203138C110C1F5D2818
:1000B8005E289028802801300A128A111A210A1213
:1000C8008A117108FB007008FA000230F500750803
:1000D800FD00831203130C13902800300A128A11B2
:1000E8001A210A128A11710883120313DB0070089F
:1000F800DA00FD01FD0A6D287D08F500F601760895
:10010800003A0319882890287508013A03195F28CE
:10011800033A03197128902879088A00780884001E
:10012800770E8300FE0E7E0E09003F34003406343D
:1001380000345B3400344F340034663400346D349A
:1001480000347D340034073400347F34003467349D
:100158000034773400347C340034583400345E344E
:10016800003479340034713400343F3400340634B8
:1001780000345B3400344F340034663400346D345A
:1001880000347D340034783400347F3400346734EC
:100198000034831603130F140F178F120F12233016
:1001A800831203138500033083160317880089011F
:1001B80023308316031385008B170B170C179F1218
:1001C8001F129F133F30831203139F050C131F1434
:1001D8008C11831603138C1583120313DC01DD01C4
:1001E800DE0124300A128A11FC200A128A11080042
:1001F80083120313DF00831603138712831203137A
:100208005F1D072908290E295E0883160313940029
:10021800871514295C085E0483160313940087115C
:10022800831203135F085D0494000800F400740847
:10023800F200F20DF20D831203131F087206C33980
:1002480072069F001E08F200F3017208F00073089E
:10025800F10008007E088A007F0882000A128A11CD
:100268002E210A128A118000840A04087D060319C7
:100278000034FF0A0319FE0A32290A128A11CD2016
:100288000A128A11FD01FD0AFC01831203139F144F
:1002980049290A128A110E280A128A1159210A12AA
:1002A8008A11831203131308080083160313141CFE
:1002B8005E295F2959290800F0007008831203138A
:0402C8009300080097
:04400E00C430FF3F7C
:00000001FF
