:020000040000FA
:060000000A128A110C280F
:10000800FE00030EF9000A08FA000A128A11D42821
:100018000A128A110F2883134830FD000130FE00B0
:100028005730FF00203084000A128A1183210A12F7
:100038008A11F001F101F201F301F401F501F60171
:10004800F70183010A128A1129280A128A112A2122
:100058000A128A11F401F001F101F601F501F70124
:10006800F301F20183120313340887007608FB00BA
:100078007B07203E84008313000885007508FB0079
:100088007B07203E8400000888007108FB007B077E
:10009800343E840000088700063071020318552892
:1000A8005628602803307102031C5B285C286028EE
:1000B8008615061286127D280330710203186528FA
:1000C8006628702802307102031C6B286C2870287F
:1000D8008611061686127D287108031D7428752856
:1000E8007D287003031D79287A287D288611061239
:1000F8008616083076060319822883288E28083049
:100108007506031D882889283A287403031D8D283D
:100118008E283A2876087502031893289428AF2861
:100128000130FB007B08F3077308FB007B07343EB4
:1001380084000008870006177A30FC00BF30FB00F7
:10014800FB0BA428FC0BA428A928F601F5018312AF
:1001580003130613CF28750876020318B428B528A8
:10016800CF280130FB007B08F2077208FB007B07F1
:10017800343E84000008870086177A30FC00BF30C0
:10018800FB00FB0BC528FC0BC528CA28F601F501A6
:10019800831203138613F4013A280A128A110C28D1
:1001A8000B1CD728D828FF28831203130618DD282C
:1001B800DE28E4280530F8007808F100F001F00A9C
:1001C8008618E728E828F1287403031DEC28ED2891
:1001D800F1280130F8007808F6070619F428F52800
:1001E800FE287403031DF928FA28FE280130F800B8
:1001F8007808F5070B100B1D02290329232906305F
:1002080071020318082909291129710803190D29F0
:100218000E2911290130F1021E297108031D152923
:1002280016291E297003031D1A291B291E29F401EA
:10023800F40AF00185308312031381000B117A0848
:100248008A00790E8300FE0E7E0E090083160313C2
:100258000F140F138F120F16073083120313860023
:100268008701880185018316031788018901831690
:100278000313850187010730860088018113073041
:10028800960007309500811281110115811401141F
:1002980085308312031381000B100B118B158B16FD
:1002A8008B170B1708000034003401340034023473
:1002B800003404340034083400341034003420345A
:1002C80000344034003480340034003400343F3487
:1002D8000034063400345B3400344F340034663460
:1002E80000346D3400347D340034783400347F3485
:1002F8000034673400347E088A007F0882000A12BE
:100308008A117F210A128A118000840A04087D0656
:0C03180003190034FF0A0319FE0A8329B0
:04400E00D430FF3F6C
:00000001FF
